:020000040800F2
:100000000050002041210008F11D0008FD1D0008DE
:10001000031E0008091E00080F1E00080000000053
:10002000000000000000000000000000151E000895
:10003000211E0008000000002D1E0008391E0008C7
:1000400089210008892100088921000889210008E8
:1000500089210008892100088921000889210008D8
:10006000451E00088921000889210008892100080F
:10007000892100088921000889210008551E0008EF
:1000800089210008892100088921000889210008A8
:100090008921000889210008892100088921000898
:1000A0008921000889210008892100088921000888
:1000B0008921000889210008892100088921000878
:1000C0008921000889210008892100088921000868
:1000D0008921000889210008892100088921000858
:1000E00089210008892100088921000800000000FA
:1000F0000000000000000000000000000000000000
:0C01000000000000000000005FF808F1A3
:1001100010B5054C237833B9044B13B10448AFF341
:1001200000800123237010BDEC01002000000000BE
:10013000C86F000808B5034B1BB103490348AFF370
:10014000008008BD00000000F0010020C86F00081A
:10015000034613F8012B002AFBD1181A0138704707
:1001600081F0004102E000BF83F0004330B54FEA68
:1001700041044FEA430594EA050F08BF90EA020FD5
:100180001FBF54EA000C55EA020C7FEA645C7FEA68
:10019000655C00F0E2804FEA5454D4EB5555B8BF8B
:1001A0006D420CDD2C4480EA020281EA030382EAFC
:1001B000000083EA010180EA020281EA0303362D8E
:1001C00088BF30BD11F0004F4FEA01314FF4801C61
:1001D0004CEA113102D0404261EB410113F0004F73
:1001E0004FEA03334CEA133302D0524263EB43032A
:1001F00094EA050F00F0A780A4F10104D5F1200EC8
:100200000DDB02FA0EFC22FA05F2801841F1000122
:1002100003FA0EF2801843FA05F359410EE0A5F1F6
:1002200020050EF1200E012A03FA0EFC28BF4CF027
:10023000020C43FA05F3C01851EBE37101F00045DD
:1002400007D54FF0000EDCF1000C7EEB00006EEBEA
:100250000101B1F5801F1BD3B1F5001F0CD3490874
:100260005FEA30004FEA3C0C04F101044FEA4452CB
:1002700012F5800F80F09A80BCF1004F08BF5FEA52
:10028000500C50F1000041EB045141EA050130BD32
:100290005FEA4C0C404141EB0101013C28BFB1F544
:1002A000801FE9D291F0000F04BF01460020B1FA8F
:1002B00081F308BF2033A3F10B03B3F120020CDA62
:1002C0000C3208DD02F1140CC2F10C0201FA0CF040
:1002D00021FA02F10CE002F11402D8BFC2F1200CA5
:1002E00001FA02F120FA0CFCDCBF41EA0C0190405B
:1002F000E41AA2BF01EB0451294330BD6FEA0404A4
:100300001F3C1CDA0C340EDC04F11404C4F120028E
:1003100020FA04F001FA02F340EA030021FA04F3A0
:1003200045EA030130BDC4F10C04C4F1200220FAF7
:1003300002F001FA04F340EA0300294630BD21FA35
:1003400004F0294630BD94F0000F83F4801306BFFB
:1003500081F480110134013D4EE77FEA645C18BFEF
:100360007FEA655C29D094EA050F08BF90EA020F86
:1003700005D054EA000C04BF1946104630BD91EA7E
:10038000030F1EBF0021002030BD5FEA545C05D181
:100390004000494128BF41F0004130BD14F58004C0
:1003A0003CBF01F5801130BD01F0004545F0FE4134
:1003B00041F470014FF0000030BD7FEA645C1ABF69
:1003C000194610467FEA655C1CBF0B46024650EAA0
:1003D000013406BF52EA033591EA030F41F40021CC
:1003E00030BD00BF90F0000F04BF0021704730B552
:1003F0004FF4806404F132044FF000054FF0000127
:1004000050E700BF90F0000F04BF0021704730B5E7
:100410004FF4806404F1320410F0004548BF4042BC
:100420004FF000013EE700BF42004FEAE2014FEA11
:1004300031014FEA02701FBF12F07F4393F07F4FEC
:1004400081F06051704732F07F4208BF704793F0EF
:100450007F4F04BF41F40021704730B54FF4607402
:1004600001F0004521F000411CE700BF50EA010205
:1004700008BF704730B54FF000050AE050EA0102AE
:1004800008BF704730B511F0004502D5404261EB1E
:1004900041014FF4806404F132045FEA915C3FF45F
:1004A000D8AE4FF003025FEADC0C18BF03325FEAFC
:1004B000DC0C18BF033202EBDC02C2F1200300FAAD
:1004C00003FC20FA02F001FA03FE40EA0E0021FAD2
:1004D00002F11444BDE600BF70B54FF0FF0C4CF4C0
:1004E000E06C1CEA11541DBF1CEA135594EA0C0F72
:1004F00095EA0C0F00F0DEF82C4481EA030621EAAD
:100500004C5123EA4C5350EA013518BF52EA0335E7
:1005100041F4801143F4801338D0A0FB02CE4FF099
:100520000005E1FB02E506F00042E0FB03E54FF0C9
:100530000006E1FB03569CF0000F18BF4EF0010EC1
:10054000A4F1FF04B6F5007F64F5407404D25FEABD
:100550004E0E6D4146EB060642EAC62141EA555170
:100560004FEAC52040EA5E504FEACE2EB4F1FD0CB2
:1005700088BFBCF5E06F1ED8BEF1004F08BF5FEA30
:10058000500E50F1000041EB045170BD06F00046E2
:1005900046EA010140EA020081EA0301B4EB5C048F
:1005A000C2BFD4EB0C0541EA045170BD41F4801187
:1005B0004FF0000E013C00F3AB8014F1360FDEBFAC
:1005C000002001F0004170BDC4F10004203C35DA88
:1005D0000C341BDC04F11404C4F1200500FA05F30B
:1005E00020FA04F001FA05F240EA020001F00042AC
:1005F00021F0004110EBD37021FA04F642EB060122
:100600005EEA430E08BF20EAD37070BDC4F10C044B
:10061000C4F1200500FA04F320FA05F001FA04F20F
:1006200040EA020001F0004110EBD37041F10001FB
:100630005EEA430E08BF20EAD37070BDC4F1200506
:1006400000FA05F24EEA020E20FA04F301FA05F26E
:1006500043EA020321FA04F001F0004121FA04F216
:1006600020EA020000EBD3705EEA430E08BF20EAE6
:10067000D37070BD94F0000F0FD101F00046400020
:1006800041EB010111F4801F08BF013CF7D041EAA2
:10069000060195F0000F18BF704703F000465200A6
:1006A00043EB030313F4801F08BF013DF7D043EA77
:1006B0000603704794EA0C0F0CEA135518BF95EA2D
:1006C0000C0F0CD050EA410618BF52EA4306D1D1B4
:1006D00081EA030101F000414FF0000070BD50EAD3
:1006E000410606BF1046194652EA430619D094EA5D
:1006F0000C0F02D150EA013613D195EA0C0F05D147
:1007000052EA03361CBF104619460AD181EA03019A
:1007100001F0004141F0FE4141F470014FF0000052
:1007200070BD41F0FE4141F4780170BD70B54FF0ED
:10073000FF0C4CF4E06C1CEA11541DBF1CEA13556D
:1007400094EA0C0F95EA0C0F00F0A7F8A4EB05044F
:1007500081EA030E52EA03354FEA013100F0888046
:100760004FEA03334FF0805545EA131343EA12630F
:100770004FEA022245EA111545EA10654FEA0026C4
:100780000EF000419D4208BF964244F1FD0404F57D
:10079000407402D25B084FEA3202B61A65EB0305D9
:1007A0005B084FEA32024FF480104FF4002CB6EB96
:1007B000020E75EB030E22BFB61A754640EA0C0016
:1007C0005B084FEA3202B6EB020E75EB030E22BF56
:1007D000B61A754640EA5C005B084FEA3202B6EB97
:1007E000020E75EB030E22BFB61A754640EA9C0056
:1007F0005B084FEA3202B6EB020E75EB030E22BF26
:10080000B61A754640EADC0055EA060E18D04FEAE3
:10081000051545EA16754FEA06164FEAC30343EA83
:1008200052734FEAC2025FEA1C1CC0D111F4801F50
:100830000BD141EA00014FF000004FF0004CB6E749
:1008400011F4801F04BF01430020B4F1FD0C88BFE8
:10085000BCF5E06F3FF6AFAEB5EB030C04BFB6EBF3
:10086000020C5FEA500C50F1000041EB045170BDE6
:100870000EF0004E4EEA113114EB5C04C2BFD4EB13
:100880000C0541EA045170BD41F480114FF0000E97
:10089000013C90E645EA060E8DE60CEA135594EA13
:1008A0000C0F08BF95EA0C0F3FF43BAF94EA0C0F16
:1008B0000AD150EA01347FF434AF95EA0C0F7FF48B
:1008C00025AF104619462CE795EA0C0F06D152EADF
:1008D00003353FF4FDAE1046194622E750EA4106C3
:1008E00018BF52EA43067FF4C5AE50EA41047FF4D4
:1008F0000DAF52EA43057FF4EBAE12E74FF0FF3C39
:1009000006E000BF4FF0010C02E000BF4FF0010C09
:100910004DF804CD4FEA410C7FEA6C5C4FEA430C82
:1009200018BF7FEA6C5C1BD001B050EA410C0CBFD1
:1009300052EA430C91EA030F02BF90EA020F002033
:10094000704710F1000F91EA030F58BF994208BF9A
:1009500090422CBFD8176FEAE37040F00100704757
:100960004FEA410C7FEA6C5C02D150EA013C07D1AE
:100970004FEA430C7FEA6C5CD6D152EA033CD3D0F9
:100980005DF8040B704700BF8446104662468C46F3
:100990001946634600E000BF01B5FFF7B7FF002826
:1009A00048BF10F1000F01BD4DF808EDFFF7F4FF4F
:1009B0000CBF012000205DF808FB00BF4DF808EDDA
:1009C000FFF7EAFF34BF012000205DF808FB00BFFD
:1009D0004DF808EDFFF7E0FF94BF012000205DF81F
:1009E00008FB00BF4DF808EDFFF7CEFF94BF0120D4
:1009F00000205DF808FB00BF4DF808EDFFF7C4FFCD
:100A000034BF012000205DF808FB00BF4FEA410C15
:100A10007FEA6C5C02D150EA013C0AD14FEA430CF8
:100A20007FEA6C5C02D152EA033C02D14FF0000035
:100A300070474FF0010070474FEA410212F5001273
:100A400015D211D56FF47873B3EB625212D94FEA15
:100A5000C12343F0004343EA505311F0004F23FAFF
:100A600002F018BF404270474FF00000704750EA54
:100A7000013005D111F0004008BF6FF00040704711
:100A80004FF00000704700BF4FEA4102B2F1E0436F
:100A900024BFB3F5001CDCF1FE5C0DD901F0004C65
:100AA0004FEAC0024CEA5070B2F1004F40EB8300B5
:100AB00008BF20F00100704711F0804F21D113F1E1
:100AC0003872BCBF01F00040704741F480114FEA1A
:100AD0005252C2F11802C2F1200C10FA0CF320FAA3
:100AE00002F018BF40F001004FEAC1234FEAD323C0
:100AF00003FA0CFC40EA0C0023FA02F34FEA43032A
:100B0000CCE77FEA625307D150EA01331EBF4FF0B2
:100B1000FE4040F44000704701F0004040F0FE40CD
:100B200040F40000704700BF80B483B000AF78602D
:100B30000A4B1B680A4AA2FB0323DB0C7A6802FB00
:100B400003F37B6000BF7B685A1E7A60002BFAD1EA
:100B500000BF00BF0C37BD4680BC704710000020AE
:100B6000819F5E1680B586B002AF0346FB710023FD
:100B7000FB7300221021134801F080FF07F10F02E0
:100B8000F91D4FF47A73009301230F4802F061FEC0
:100B9000FB79072B0CD0FF23BB7307F10F0207F182
:100BA0000E014FF47A7300930123074802F051FEBF
:100BB00001221021034801F061FFFB7B184610372A
:100BC000BD4680BD000801403002002080B582B0E3
:100BD00000AF03460A46FB711346BB71FB7943F035
:100BE0002003DBB2FB71002210210D4801F046FF0B
:100BF000F91D4FF47A7301220A4802F0DDFBB91D9A
:100C00004FF47A730122074802F0D6FB012210212B
:100C1000034801F033FF00BF0837BD4680BD00BF69
:100C2000000801403002002080B582B000AF5023A0
:100C30003B71002210210F4801F020FF391D4FF4B5
:100C40007A7301220C4802F0B7FB0120FFF76CFF1A
:100C500073233B71391D4FF47A730122064802F069
:100C6000ABFB01221021034801F008FF00BF083749
:100C7000BD4680BD000801403002002080B582B032
:100C800000AF03463960FB711346BB71002210218F
:100C90000D4801F0F3FEF91D4FF47A7301220B4861
:100CA00002F08AFBBB799AB24FF47A73396807482D
:100CB00002F0BEFC01221021034801F0DFFE00BF5C
:100CC0000837BD4680BD00BF00080140300200204B
:100CD00080B582B000AF03463960FB711346BB712B
:100CE000FB7943F02003DBB2FB71002210210F4897
:100CF00001F0C4FEF91D4FF47A7301220C4802F092
:100D00005BFB0120FFF710FFBB799AB24FF47A73B7
:100D10003968074802F050FB01221021034801F016
:100D2000ADFE00BF0837BD4680BD00BF00080140D2
:100D30003002002080B582B000AFE2233B71002278
:100D400010210B4801F09AFE391D4FF47A730122ED
:100D5000084802F031FB0120FFF7E6FE01221021D6
:100D6000034801F08BFE00BF0837BD4680BD00BFC1
:100D7000000801403002002080B582B000AFE123BE
:100D80003B71002210210B4801F078FE391D4FF411
:100D90007A730122084802F00FFB0120FFF7C4FE1E
:100DA00001221021034801F069FE00BF0837BD464B
:100DB00080BD00BF000801403002002080B582B035
:100DC00000AF0023FB710020FFF7CCFE0346FB7150
:100DD000FB7943F00303FB71FB7919460020FFF711
:100DE000F5FE01220821074801F048FE9620FFF792
:100DF0009BFEFFF79FFFFFF7BFFF00BF0837BD4611
:100E000080BD00BF0008014080B582B000AF7860AF
:100E1000032208491020FFF75BFF00220821064843
:100E200001F02CFEFFF786FFFFF7A6FF00BF083793
:100E3000BD4680BD000000200008014080B582B0A2
:100E400000AF03463960FB711346BB7100220821D5
:100E5000134801F013FE00221021114801F00EFE8C
:100E6000F91D4FF47A7301220E4802F0A5FA012011
:100E7000FFF75AFEBB799AB24FF47A733968094882
:100E800002F09AFA01221021054801F0F7FD012233
:100E90000821034801F0F2FD00BF0837BD4680BDC0
:100EA000000801403002002080B584B000AF7860B7
:100EB0000023FB730023BB737868FFF7A5FF0020B6
:100EC000FFF750FE0346BB73BB7B43F00203BB73CB
:100ED000BB7B23F00103BB73BB7B19460020FFF7EC
:100EE00075FE9620FFF720FE05227968A020FFF707
:100EF000A5FF01220821074801F0C0FD0F20FFF7E0
:100F000013FE00220821034801F0B8FD00BF10378E
:100F1000BD4680BD0008014080B500AF05220E49E6
:100F20006120FFF7ABFE0C4B9B781B041A460A4B63
:100F30005B781B021344084A12781344074A536033
:100F4000054BDB781A46054B9A60034B1B791A4612
:100F5000024BDA6000BF80BD0802002020020020A2
:100F600080B582B000AF0023FB710720FFF7FAFDC8
:100F70000346FB71FB7903F04003002B19D0FB798A
:100F800003F02003002B14D040210720FFF71EFEA2
:100F9000FFF7C2FF20210720FFF718FE0820FFF708
:100FA000E1FD034603F00F031E4A9360FFF706FFBF
:100FB00034E0FB7903F04003002B06D040210720EA
:100FC000FFF704FEFFF7A8FF28E0FB7903F02003FA
:100FD000002B0ED020210720FFF7F8FD0820FFF797
:100FE000C1FD034603F00F030E4A9360FFF7E6FED0
:100FF00014E0FB7903F01003002B0FD01021072021
:10100000FFF7E4FDFFF7B8FE0820FFF7ABFD03464E
:1010100003F00F03034A9360FFF7D0FE00BF0837C9
:10102000BD4680BD2002002080B500AF002208210F
:10103000234801F023FD41F28830FFF775FD0A21B6
:101040000020FFF7C3FD41F28830FFF76DFD01215D
:101050000120FFF7BBFD01210220FFF7B7FD0121B1
:101060000320FFF7B3FD5F210420FFF7AFFDFFF77B
:10107000DBFD06211D20FFF7A9FD01211C20FFF744
:10108000A5FD70210720FFF7A1FD46210520FFF7F0
:101090009DFD26210620FFF799FD03220949102016
:1010A000FFF716FE032207490A20FFF711FE05216C
:1010B0001120FFF78BFDFFF781FE00BF80BD00BF51
:1010C000000801400000002080B500AF00F0F4FBF4
:1010D00000BF80BD0000000080B59EB002AF0123BC
:1010E00087F86F300A2387F86E30694B5B681846C3
:1010F000FFF778F964A3D3E90023FFF717FB024653
:101100000B4610461946FFF7BFFC0346BB66B86E98
:10111000FFF78AF902460B4607F140005D4903F0EC
:1011200001FD5B4B5A6807F148035B49184603F021
:10113000F9FC5A4B1B881A4607F1200356491846FA
:1011400003F0F0FC564B1B881A463B4652491846A2
:1011500003F0E8FC97F86E2097F86F3011461846B8
:1011600000F05EFD4F4A012306CA4F4800F032FDF1
:1011700097F86E2097F86F301146184600F050FD32
:10118000484A07F14800012306CA00F023FD97F8FA
:101190006F30433387F86F3097F86E2097F86F30D1
:1011A0001146184600F03CFD3E4A012306CA3F485E
:1011B00000F010FD97F86E2097F86F301146184632
:1011C00000F02EFD374A07F14000012306CA00F067
:1011D00001FD97F86E30203387F86E3097F86E2057
:1011E00097F86F301146184600F01AFD2D4A01237A
:1011F00006CA2E4800F0EEFC97F86E2097F86F3084
:101200001146184600F00CFD264A3846012306CA4E
:1012100000F0E0FC97F86F30433B87F86F3097F8A9
:101220006E2097F86F301146184600F0F9FC1D4A01
:10123000012306CA1D4800F0CDFC97F86E2097F8F0
:101240006F301146184600F0EBFC164A07F12000FB
:10125000012306CA00F0BEFC012300934023402274
:101260000021402000F0F4FC012300932023802281
:101270002021002000F0ECFC00F0AAFB00BF70373A
:10128000BD4680BDAFF300800AD7A3703DAA604081
:1012900020020020E06F0008E86F00080400002032
:1012A0000E02002008000020EC6F0008FC6F000810
:1012B00080B582B000AF0C4B5B690B4A43F0010371
:1012C0005361094B5B6903F001037B607B6800227B
:1012D00000210F2001F0B7F80F2001F0D0F800BF77
:1012E0000837BD4680BD00BF0010024080B500AF8A
:1012F0003C210B4802F0EAFD094B1B684FF4004209
:101300005A62074B1B685B6A5B08064A1360044B12
:101310001B685B6A5B08044A136000BF80BD00BFA6
:1013200030070020100200201402002080B588B091
:1013300000AF07F1100300221A605A609A60DA6069
:10134000484B9B69474A43F010039361454B9B69A7
:1013500003F01003FB60FB68424B9B69414A43F07A
:10136000200393613F4B9B6903F02003BB60BB6884
:101370003C4B9B693B4A43F004039361394B9B69A7
:1013800003F004037B607B68364B9B69354A43F06E
:1013900008039361334B9B6903F008033B603B6890
:1013A00000221821304801F069FB00224FF49851C7
:1013B0002E4801F063FB4FF400533B6103237B6134
:1013C00007F1100319462A4801F0D4F949F60373CE
:1013D0003B6103237B6107F110031946224801F0AA
:1013E000C9F904233B61234B7B610023BB6107F1F7
:1013F000100319461C4801F0BDF918233B61012375
:101400007B610023BB610223FB6107F110031946D6
:10141000154801F0AFF944F6CF433B6103237B61EC
:1014200007F110031946114801F0A4F94FF498533D
:101430003B6101237B610023BB610223FB6107F158
:1014400010031946094801F095F9002201210820EE
:1014500000F0F9FF082001F012F800BF2037BD4668
:1014600080BD00BF0010024000080140000C014098
:10147000001001400000211080B582B000AF0023B1
:10148000FB7100F083FE00F03FF8FFF74FFFFFF71E
:101490000FFF00F0C9F800F0ADFD00F08FF8FFF786
:1014A00013FEFFF723FFFFF7BFFDFFF715FE4FF415
:1014B0007A7000F0CDFE1048FFF7F6FCBB7903F020
:1014C0000F03FB710D4B1B8801339AB20B4B1A8033
:1014D0000B4B9B689AB20B4B1B8813449AB2094B77
:1014E0001A80064B1B8840F2E6329342DDD9034B4B
:1014F00001221A80D9E700BF180200200400002052
:10150000200200200E02002080B590B000AF07F14D
:10151000180328220021184602F09CFE3B1D0022E1
:101520001A605A609A60DA601A610123BB614FF455
:101530008033FB6100233B620123BB6202237B6398
:101540004FF48033BB634FF40023FB6307F11803B0
:10155000184601F0C3FA0346002B01D000F027F82B
:101560000F237B600223BB600023FB604FF480638A
:101570003B6100237B613B1D0221184601F030FDD9
:101580000346002B01D000F012F800BF4037BD46E3
:1015900080BD80B582B000AF0346FB80FB88042B82
:1015A00001D1FFF7DDFC00BF0837BD4680BD80B428
:1015B00000AF00BFBD4680BC7047000080B500AFE3
:1015C000174B184A1A60164B4FF482725A60144B2C
:1015D00000229A60124B0022DA60114B00221A613D
:1015E0000F4B00225A610E4B4FF400729A610C4B64
:1015F0002022DA610A4B00221A62094B00225A6249
:10160000074B00229A62064B0A22DA62044801F074
:101610004FFE0346002B01D0FFF7C9FF00BF80BD7E
:10162000300200200030014080B500AF184B194A4D
:101630001A60174B4FF482725A60154B4FF40042F8
:101640009A60134B0022DA60114B00221A61104B92
:1016500000225A610E4B4FF400729A610C4B082223
:10166000DA610B4B00221A62094B00225A62084BC6
:1016700000229A62064B0A22DA62054801F018FE3F
:101680000346002B01D0FFF792FF00BF80BD00BFD3
:10169000880200200038004080B58AB000AF786032
:1016A00007F1180300221A605A609A60DA607B68BA
:1016B0001B68444A934230D1434B9B69424A43F4EE
:1016C00080539361404B9B6903F480537B617B693A
:1016D0003D4B9B693C4A43F0040393613A4B9B6941
:1016E00003F004033B613B69A023BB610223FB6160
:1016F00003237B6207F118031946344801F03AF8D6
:101700004023BB610023FB6100233B6207F1180308
:1017100019462E4801F02EF84FE07B681B682C4AD2
:1017200093424AD1284BDB69274A43F48043D36173
:10173000254BDB6903F48043FB60FB68224B9B690C
:10174000214A43F0080393611F4B9B6903F0080390
:10175000BB60BB684FF42043BB610223FB610323E2
:101760007B6207F1180319461A4801F003F81A4B77
:101770001A4A1A60184B10225A60174B00229A60BE
:10178000154B8022DA60144B00221A61124B0022A2
:101790005A61114B00229A610F4B0022DA610E4808
:1017A00000F088FE0346002B01D0FFF700FF7B68A6
:1017B000094A9A64084A7B68536200BF2837BD46CD
:1017C00080BD00BF00300140001002400008014011
:1017D00000380040000C0140E002002058000240A8
:1017E00080B500AF01224FF480710B4801F046F93B
:1017F00000224FF48051084801F040F90A2000F01F
:1018000027FD01224FF48051034801F037F90A20E7
:1018100000F01EFD00BF80BD000C014080B582B00D
:1018200000AF0346FB7100224FF480710C4801F0B9
:1018300025F900224FF40071094801F01FF9F91D44
:101840004FF0FF330122074801F0B6FD01224FF4AB
:101850008071034801F012F900BF0837BD4680BD12
:10186000000C01408802002080B582B000AF786093
:10187000396000224FF480710D4801F0FFF8012219
:101880004FF400710A4801F0F9F83B689AB24FF042
:10189000FF337968074801F08FFD01224FF4807112
:1018A000034801F0EBF800BF0837BD4680BD00BF1C
:1018B000000C01408802002080B500AFFFF790FFC8
:1018C000642000F0C5FC002000F042FA2020FFF761
:1018D000A5FF0020FFF7A2FFB020FFF79FFFC82061
:1018E000FFF79CFF0020FFF799FF1020FFF796FFFE
:1018F0004020FFF793FFFF2000F016FAA120FFF72A
:101900008DFFA620FFF78AFFA820FFF787FF3F2063
:10191000FFF784FFA420FFF781FFD320FFF77EFFAE
:101920000020FFF77BFFD520FFF778FFF020FFF7BF
:1019300075FFD920FFF772FF2220FFF76FFFDA2033
:10194000FFF76CFF1220FFF769FFDB20FFF766FF50
:101950002020FFF763FF8D20FFF760FF1420FFF7C3
:101960005DFF012000F0F4F9002000F00FF800F016
:101970002FF8054B00221A80034B00225A80024B9D
:1019800001221A7100BF80BD2407002080B485B0F9
:1019900000AF0346FB710023FB600DE0FB79002BD9
:1019A00001D1002100E0FF21084AFB6813440A46E8
:1019B0001A70FB680133FB60FB68B3F5806FEDD3F1
:1019C00000BF00BF1437BD4680BC70472403002011
:1019D00080B582B000AF0023FB7116E0FB79503B6D
:1019E000DBB21846FFF71AFF0020FFF717FF1020A1
:1019F000FFF714FFFB79DB01084A134480211846E6
:101A0000FFF732FFFB790133FB71FB79072BE5D937
:101A100000BF00BF0837BD4680BD00BF24030020C3
:101A200080B483B000AF0346FB710B46BB71134615
:101A30007B7197F90730002B3DDBBB793F2B3AD800
:101A40007B79012B1AD1FA79BB79DB08D8B203462E
:101A5000DB0113441A4AD35C5AB2BB7903F0070383
:101A6000012101FA03F35BB2134359B2FA79034639
:101A7000DB011344C9B2124AD1541DE0FA79BB7993
:101A8000DB08D8B20346DB0113440D4AD35C5AB2DB
:101A9000BB7903F00703012101FA03F35BB2DB43D7
:101AA0005BB2134059B2FA790346DB011344C9B261
:101AB000034AD15400E000BF0C37BD4680BC7047DC
:101AC0002403002090B589B000AF0446381D80E89B
:101AD00006001A462346FB731346BB73FB7B1F2B82
:101AE00002D9FB7B7E2B01D900236DE0384B1B888C
:101AF0001A463B791344802B06DC354B5B881A462B
:101B00007B791344402B01DD00235DE00023FB6162
:101B10004CE0BA68FB7B203B797901FB03F3194663
:101B2000FB690B445B0013441B887B610023BB6192
:101B300034E07A69BB6902FA03F303F40043002B33
:101B400012D0234B1B88DAB2BB69DBB21344D8B284
:101B50001F4B5B88DAB2FB69DBB21344DBB2BA7BA2
:101B60001946FFF75DFF16E0194B1B88DAB2BB6917
:101B7000DBB21344D8B2164B5B88DAB2FB69DBB236
:101B80001344D9B2BB7B002B0CBF01230023DBB273
:101B90001A46FFF745FFBB690133BB613B791A4623
:101BA000BB699342C5D3FB690133FB617B791A465C
:101BB000FB699342ADD3064B1A883B799BB2134421
:101BC0009AB2034B1A80FB7B18462437BD4690BD62
:101BD0002407002080B584B000AFF860381D80E88D
:101BE0000600FB7012E0FB681878FB783A1D06CA05
:101BF000FFF768FF03461A46FB681B789A4202D03B
:101C0000FB681B7808E0FB680133FB60FB681B780E
:101C1000002BE8D1FB681B7818461037BD4680BD05
:101C200080B483B000AF03460A46FB711346BB7114
:101C3000FB799AB2054B1A80BB799AB2034B5A8052
:101C400000BF0C37BD4680BC704700BF2407002092
:101C500090B589B000AF0446084611461A4623469F
:101C6000FB710346BB710B467B7113463B717A795E
:101C7000FB79D31A002BB8BF5B42BB613A79BB79C1
:101C8000D31A002BB8BF5B427B61FA797B799A4209
:101C900001D2012301E04FF0FF333B61BA793B7978
:101CA0009A4201D2012301E04FF0FF33FB60BA6991
:101CB0007B69D31AFB6197F8302039797B79184614
:101CC000FFF7AEFE24E097F83020B979FB7918468B
:101CD000FFF7A6FEFB695B00BB607B695B42BA68ED
:101CE0009A4208DDFA697B69D31AFB613B69DAB273
:101CF000FB791344FB71BA68BB699A4208DAFA6946
:101D0000BB691344FB61FB68DAB2BB791344BB7156
:101D1000FA797B799A42D6D1BA793B799A42D2D173
:101D200000BF2437BD4690BD80B584B000AF0346E8
:101D3000FB718123FB73FB7B1846FFF76FFDFB797B
:101D40001846FFF76BFD00BF1037BD4680BD000091
:101D500080B584B000AF0346FB71FB79002B05D042
:101D6000AF23FB73084B01225A7104E0AE23FB73CF
:101D7000054B00225A71FB7B1846FFF74FFD00BF51
:101D80001037BD4680BD00BF2407002080B485B059
:101D900000AF154B9B69144A43F001039361124B4A
:101DA0009B6903F00103BB60BB680F4BDB690E4A04
:101DB00043F08053D3610C4BDB6903F080537B60AD
:101DC0007B680A4B5B68FB60FB6823F0E063FB60A9
:101DD000FB6843F00073FB60044AFB68536000BF7C
:101DE0001437BD4680BC704700100240000001401F
:101DF00080B400AF00BFBD4680BC704780B400AF68
:101E0000FEE780B400AFFEE780B400AFFEE780B429
:101E100000AFFEE780B400AF00BFBD4680BC704796
:101E200080B400AF00BFBD4680BC704780B400AF37
:101E300000BFBD4680BC704780B500AF00F0ECF934
:101E400000BF80BD80B500AF042000F02FFE00BFB2
:101E500080BD000080B500AF024800F085FB00BFE8
:101E600080BD00BFE002002080B400AF012318460F
:101E7000BD4680BC704780B582B000AF78603960E5
:101E800002F096F9034616221A604FF0FF33184607
:101E90000837BD4680BD80B582B000AF78604FF096
:101EA000FF317868FFF7E7FFFEE780B586B000AF47
:101EB000F860B9607A6000237B610AE0AFF30080CC
:101EC0000146BB685A1CBA60CAB21A707B690133FA
:101ED0007B617A697B689A42F0DB7B681846183729
:101EE000BD4680BD80B586B000AFF860B9607A604D
:101EF00000237B6109E0BB685A1CBA601B78184656
:101F0000AFF300807B6901337B617A697B689A4219
:101F1000F1DB7B6818461837BD4680BD80B483B0BE
:101F200000AF78604FF0FF3318460C37BD4680BCD9
:101F3000704780B483B000AF786039603B684FF47D
:101F400000525A60002318460C37BD4680BC7047CB
:101F500080B483B000AF7860012318460C37BD46CB
:101F600080BC704780B485B000AFF860B9607A601B
:101F7000002318461437BD4680BC704780B586B034
:101F800000AF7860144A154BD31A7B617B693B61C3
:101F9000134B1B68002B02D1114B124A1A60104BD5
:101FA0001A687B6813443A699A4207D202F000F932
:101FB00003460C221A604FF0FF3309E0084B1B6800
:101FC000FB60074B1A687B681344054A1360FB6883
:101FD00018461837BD4680BD0050002000040000A0
:101FE0002C0700209007002080B400AF00BFBD4642
:101FF00080BC704780B58CB000AF07F10C03242281
:102000000021184602F026F93B1D00221A605A6092
:10201000204B214A1A601F4B01225A601D4B00229F
:102020009A601C4B4FF6FF72DA601A4B00221A615D
:10203000184B80229A610123FB6000233B6101233E
:102040007B610023BB610023FB6100233B62012312
:102050007B620023BB620023FB6207F10C0319467D
:102060000C4801F091FE0346002B01D0FFF79FFAC8
:1020700000237B600023BB603B1D1946054802F02E
:1020800039F80346002B01D0FFF791FA00BF303733
:10209000BD4680BD300700200004004080B58AB0F6
:1020A00000AF786007F1140300221A605A609A604A
:1020B000DA607B681B681E4A934235D11D4BDB6991
:1020C0001C4A43F00203D3611A4BDB6903F002039D
:1020D0003B613B69174B9B69164A43F008039361C8
:1020E000144B9B6903F00803FB60FB6830237B61A2
:1020F0000023BB610023FB6107F1140319460E485E
:1021000000F038FB0D4B5B687B627B6A23F4406315
:102110007B627B6A43F0E0637B627B6A43F400632B
:102120007B62064A7B6A536000BF2837BD4680BD8C
:102130000004004000100240000C0140000001407B
:102140000C480D490D4A002302E0D458C450043312
:10215000C4188C42F9D30A4A0A4C002301E01360E8
:102160000432A242FBD3FFF73FFF02F027F8FFF74C
:1021700083F9704700000020EC0100206481000812
:10218000EC0100208C070020FEE7000080B500AFC6
:10219000084B1B68074A43F010031360032000F04C
:1021A00047F9002000F008F8FFF7F0FD002318467B
:1021B00080BD00BF0020024080B582B000AF7860D3
:1021C000124B1A68124B1B7819464FF47A73B3FB03
:1021D000F1F3B2FBF3F3184600F05FF90346002B6E
:1021E00001D001230EE07B680F2B0AD8002279680A
:1021F0004FF0FF3000F027F9064A7B681360002398
:1022000000E0012318460837BD4680BD10000020BD
:10221000180000201400002080B400AF054B1B788C
:102220001A46054B1B681344034A136000BFBD46A2
:1022300080BC7047180000207807002080B400AFF1
:10224000024B1B681846BD4680BC704778070020CB
:1022500080B584B000AF7860FFF7F0FFB8607B68AE
:10226000FB60FB68B3F1FF3F05D00A4B1B781A46B1
:10227000FB681344FB6000BFFFF7E0FF0246BB684A
:10228000D31AFA689A42F7D800BF00BF1037BD468C
:1022900080BD00BF1800002080B485B000AF78601A
:1022A0007B6803F00703FB600C4BDB68BB60BA681C
:1022B0004FF6FF031340BB60FB681A02BB68134371
:1022C00043F0BF6343F40033BB60044ABB68D36090
:1022D00000BF1437BD4680BC704700BF00ED00E072
:1022E00080B400AF044BDB681B0A03F007031846F9
:1022F000BD4680BC704700BF00ED00E080B483B0F5
:1023000000AF0346FB7197F90730002B0BDBFB791D
:1023100003F01F02064997F907305B09012000FA14
:1023200002F241F8232000BF0C37BD4680BC704745
:1023300000E100E080B483B000AF03463960FB7178
:1023400097F90730002B0ADB3B68DAB20C4997F9A2
:1023500007301201D2B20B4483F800230AE03B6835
:10236000DAB20849FB7903F00F03043B1201D2B241
:102370000B441A7600BF0C37BD4680BC704700BFC7
:1023800000E100E000ED00E080B489B000AFF8604B
:10239000B9607A60FB6803F00703FB61FB69C3F176
:1023A0000703042B28BF0423BB61FB690433062BFE
:1023B00002D9FB69033B00E000237B614FF0FF3251
:1023C000BB6902FA03F3DA43BB681A407B699A409F
:1023D0004FF0FF317B6901FA03F3D9437B680B406F
:1023E000134318462437BD4680BC704780B582B081
:1023F00000AF78607B68013BB3F1807F01D301239C
:102400000FE00A4A7B68013B53600F214FF0FF3019
:10241000FFF790FF054B00229A60044B07221A60D9
:10242000002318460837BD4680BD00BF10E000E01D
:1024300080B582B000AF78607868FFF72DFF00BFED
:102440000837BD4680BD80B586B000AF0346B96091
:102450007A60FB7300237B61FFF742FF78617A6843
:10246000B9687869FFF790FF024697F90F30114677
:102470001846FFF75FFF00BF1837BD4680BD80B527
:1024800082B000AF0346FB7197F907301846FFF79B
:1024900035FF00BF0837BD4680BD80B582B000AFB4
:1024A00078607868FFF7A2FF034618460837BD46F4
:1024B00080BD000080B485B000AF78600023FB6071
:1024C0007B68002B01D1012343E07B681B681A461F
:1024D000224B1344224AA2FB03231B099A007B6868
:1024E0001A647B681F4ADA637B68022283F8212022
:1024F0007B681B681B68FB60FB6823F47F5323F039
:102500003003FB607B685A687B689B681A437B6872
:10251000DB681A437B681B691A437B685B691A4353
:102520007B689B691A437B68DB691343FA68134332
:10253000FB607B681B68FA681A607B6800229A63FC
:102540007B68012283F821207B68002283F8202009
:10255000002318461437BD4680BC7047F8FFFDBF06
:10256000CDCCCCCC0000024080B584B000AF786008
:102570007B68DB6B1B68FB607B681B681B68BB6050
:102580007B681B6C04229A40FB681340002B4FD0E1
:10259000BB6803F00403002B4AD07B681B681B68F0
:1025A00003F02003002B07D17B681B681A687B6847
:1025B0001B6822F004021A607B681B68664A93421B
:1025C00029D07B681B68654A934222D07B681B68D0
:1025D000634A93421AD07B681B68624A934212D0C6
:1025E0007B681B68604A93420AD07B681B685F4A1D
:1025F000934202D14FF480030EE04FF080630BE072
:102600004FF4802308E04FF4804305E04FF48063EB
:1026100002E0402300E00423554A53607B68DB6AF4
:10262000002B00F094807B68DB6A786898478EE026
:102630007B681B6C02229A40FB681340002B56D02B
:10264000BB6803F00203002B51D07B681B681B683A
:1026500003F02003002B0BD17B681B681A687B6892
:102660001B6822F00A021A607B68012283F821208D
:102670007B681B68384A934229D07B681B68374ABD
:10268000934222D07B681B68354A93421AD07B68FC
:102690001B68344A934212D07B681B68324A9342CB
:1026A0000AD07B681B68314A934202D14FF4001371
:1026B0000EE04FF000730BE04FF4003308E04FF4EE
:1026C000005305E04FF4007302E0202300E00223F2
:1026D000274A53607B68002283F820207B689B6A2E
:1026E000002B34D07B689B6A786898472FE07B6822
:1026F0001B6C08229A40FB681340002B28D0BB6853
:1027000003F00803002B23D07B681B681A687B68E2
:102710001B6822F00E021A607B681A6C7B68DB6B08
:10272000012101FA02F25A607B6801229A637B68F8
:10273000012283F821207B68002283F820207B6817
:102740001B6B002B04D07B681B6B7868984700BF1D
:1027500000BF1037BD4680BD080002401C0002408B
:102760003000024044000240580002406C00024029
:102770000000024080B48BB000AF78603960002365
:102780007B6200233B6269E101227B6A02FA03F368
:10279000FB613B681B68FA691340BB61BA69FB695E
:1027A0009A4240F058813B685B689A4A93425ED0F7
:1027B000984A934275D8984A934258D0964A934281
:1027C0006FD8964A934252D0944A934269D8944A19
:1027D00093424CD0924A934263D8924A934246D055
:1027E000904A93425DD8122B2AD8122B59D801A2B5
:1027F00052F823F06F280008492800085B280008D9
:102800009D280008A3280008A3280008A328000882
:10281000A3280008A3280008A3280008A32800086C
:10282000A3280008A3280008A3280008A32800085C
:10283000A3280008A32800085128000865280008DC
:10284000794A934213D02CE03B68DB683B6229E075
:102850003B68DB6804333B6224E03B68DB68083399
:102860003B621FE03B68DB680C333B621AE03B686D
:102870009B68002B02D104233B6213E03B689B68FA
:10288000012B05D108233B627B68FA691A6109E0D4
:1028900008233B627B68FA695A6103E000233B62CC
:1028A00000E000BFBB69FF2B01D87B6801E07B68BB
:1028B00004337B61BB69FF2B02D87B6A9B0002E07B
:1028C0007B6A083B9B003B617B691A680F213B696F
:1028D00001FA03F3DB431A40396A3B6901FA03F357
:1028E0001A437B691A603B685B6803F08053002BD6
:1028F00000F0B1804D4B9B694C4A43F0010393615A
:102900004A4B9B6903F00103BB60BB68484A7B6A82
:102910009B08023352F82330FB607B6A03F0030309
:102920009B000F2202FA03F3DB43FA681340FB60BB
:102930007B68404A934213D07B683F4A93420DD054
:102940007B683E4A934207D07B683D4A934201D15F
:10295000032306E0042304E0022302E0012300E055
:1029600000237A6A02F0030292009340FA6813434C
:10297000FB602F497B6A9B080233FA6841F82320E9
:102980003B685B6803F48033002B06D02D4B1A683C
:102990002C49BB6913430B6006E02A4B1A68BB69DC
:1029A000DB43284913400B603B685B6803F400334A
:1029B000002B06D0234B5A682249BB6913434B6056
:1029C00006E0204B5A68BB69DB431E4913404B604D
:1029D0003B685B6803F48013002B06D0194B9A68A0
:1029E0001849BB6913438B6006E0164B9A68BB69B4
:1029F000DB43144913408B603B685B6803F40013AE
:102A0000002B21D00F4BDA680E49BB691343CB6012
:102A100021E000BF00003210000031100000221041
:102A200000002110000012100000111000100240E0
:102A30000000014000080140000C0140001001406E
:102A400000140140000401400B4BDA68BB69DB4312
:102A500009491340CB607B6A01337B623B681A688B
:102A60007B6A22FA03F3002B7FF48EAE00BF00BF17
:102A70002C37BD4680BC70470004014080B483B051
:102A800000AF78600B467B8013467B707B78002B11
:102A900003D07A887B681A6103E07B881A047B681C
:102AA0001A6100BF0C37BD4680BC704780B582B04C
:102AB00000AF0346FB80084B5A69FB881340002B8C
:102AC00006D0054AFB885361FB881846FEF761FD76
:102AD00000BF0837BD4680BD0004014080B586B008
:102AE00000AF78607B68002B01D1012372E27B6824
:102AF0001B6803F00103002B00F08780924B5B689A
:102B000003F00C03042B0CD08F4B5B6803F00C0319
:102B1000082B12D18C4B5B6803F48033B3F5803FF4
:102B20000BD1894B1B6803F40033002B6CD07B68FE
:102B30005B68002B68D101234CE27B685B68B3F5CE
:102B4000803F06D1804B1B687F4A43F4803313607B
:102B50002EE07B685B68002B0CD17B4B1B687A4AAC
:102B600023F480331360784B1B68774A23F4802367
:102B700013601DE07B685B68B3F5A02F0CD1724B2E
:102B80001B68714A43F4802313606F4B1B686E4AC5
:102B900043F4803313600BE06B4B1B686A4A23F4E9
:102BA00080331360684B1B68674A23F480231360EB
:102BB0007B685B68002B13D0FFF740FB386108E0AF
:102BC000FFF73CFB02463B69D31A642B01D9032370
:102BD00000E25D4B1B6803F40033002BF0D014E0DF
:102BE000FFF72CFB386108E0FFF728FB02463B6942
:102BF000D31A642B01D90323ECE1534B1B6803F474
:102C00000033002BF0D100E000BF7B681B6803F0AD
:102C10000203002B63D04C4B5B6803F00C03002BCA
:102C20000BD0494B5B6803F00C03082B1CD1464BBF
:102C30005B6803F48033002B16D1434B1B6803F011
:102C40000203002B05D07B681B69012B01D00123F7
:102C5000C0E13D4B1B6823F0F8027B685B69DB0039
:102C6000394913430B603AE07B681B69002B20D085
:102C7000364B01221A60FFF7E1FA386108E0FFF7EE
:102C8000DDFA02463B69D31A022B01D90323A1E1E5
:102C90002D4B1B6803F00203002BF0D02A4B1B685E
:102CA00023F0F8027B685B69DB00274913430B6064
:102CB00015E0264B00221A60FFF7C0FA386108E0E1
:102CC000FFF7BCFA02463B69D31A022B01D9032352
:102CD00080E11D4B1B6803F00203002BF0D17B68E1
:102CE0001B6803F00803002B3AD07B689B69002B1C
:102CF00019D0174B01221A60FFF7A0FA386108E0DB
:102D0000FFF79CFA02463B69D31A022B01D9032331
:102D100060E10D4B5B6A03F00203002BF0D0012051
:102D200000F0A8FA1CE00A4B00221A60FFF786FAAE
:102D300038610FE0FFF782FA02463B69D31A022B93
:102D400008D9032346E100BF0010024000004242C0
:102D500080044242924B5B6A03F00203002BE9D1EC
:102D60007B681B6803F00403002B00F0A68000239F
:102D7000FB758B4BDB6903F08053002B0DD1884B27
:102D8000DB69874A43F08053D361854BDB6903F0ED
:102D90008053BB60BB680123FB75824B1B6803F447
:102DA0008073002B18D17F4B1B687E4A43F48073DD
:102DB0001360FFF743FA386108E0FFF73FFA024675
:102DC0003B69D31A642B01D9032303E1754B1B68BC
:102DD00003F48073002BF0D07B68DB68012B06D1F5
:102DE0006F4B1B6A6E4A43F0010313622DE07B6850
:102DF000DB68002B0CD16A4B1B6A694A23F0010384
:102E00001362674B1B6A664A23F0040313621CE0DB
:102E10007B68DB68052B0CD1614B1B6A604A43F071
:102E2000040313625E4B1B6A5D4A43F001031362A5
:102E30000BE05B4B1B6A5A4A23F001031362584BA9
:102E40001B6A574A23F0040313627B68DB68002B7C
:102E500015D0FFF7F3F938610AE0FFF7EFF9024602
:102E60003B69D31A41F28832934201D90323B1E07E
:102E70004B4B1B6A03F00203002BEED014E0FFF76C
:102E8000DDF938610AE0FFF7D9F902463B69D31A48
:102E900041F28832934201D903239BE0404B1B6AE5
:102EA00003F00203002BEED1FB7D012B05D13C4B3F
:102EB000DB693B4A23F08053D3617B68DB69002BDD
:102EC00000F08780364B5B6803F00C03082B61D061
:102ED0007B68DB69022B46D1334B00221A60FFF777
:102EE000ADF9386108E0FFF7A9F902463B69D31A4A
:102EF000022B01D903236DE0294B1B6803F00073FB
:102F0000002BF0D17B681B6AB3F5803F08D1244BBE
:102F10005B6823F400327B689B68214913434B6054
:102F20001F4B5B6823F474127B68196A7B685B6AC9
:102F30000B431B4913434B601B4B01221A60FFF7E5
:102F40007DF9386108E0FFF779F902463B69D31A49
:102F5000022B01D903233DE0114B1B6803F00073E2
:102F6000002BF0D035E0104B00221A60FFF766F915
:102F7000386108E0FFF762F902463B69D31A022B79
:102F800001D9032326E0064B1B6803F00073002BD6
:102F9000F0D11EE07B68DB69012B07D1012319E02A
:102FA0000010024000700040600042420B4B5B6822
:102FB000FB60FB6803F480327B681B6A9A4206D18F
:102FC000FB6803F470127B685B6A9A4201D00123AC
:102FD00000E0002318461837BD4680BD00100240AF
:102FE00080B584B000AF786039607B68002B01D178
:102FF0000123D0E06A4B1B6803F007033A689A424A
:1030000010D9674B1B6823F0070265493B681343DF
:103010000B60634B1B6803F007033A689A4201D0C8
:103020000123B8E07B681B6803F00203002B20D06B
:103030007B681B6803F00403002B05D0594B5B68C9
:10304000584A43F4E06353607B681B6803F008034D
:10305000002B05D0534B5B68524A43F460535360D6
:10306000504B5B6823F0F0027B689B684D4913432B
:103070004B607B681B6803F00103002B40D07B682A
:103080005B68012B07D1474B1B6803F40033002B0F
:1030900015D101237FE07B685B68022B07D1414B90
:1030A0001B6803F00073002B09D1012373E03D4B33
:1030B0001B6803F00203002B01D101236BE0394BA5
:1030C0005B6823F003027B685B68364913434B60FF
:1030D000FFF7B4F8F8600AE0FFF7B0F80246FB68C3
:1030E000D31A41F28832934201D9032353E02D4B86
:1030F0005B6803F00C027B685B689B009A42EBD133
:10310000274B1B6803F007033A689A4210D2244BFE
:103110001B6823F0070222493B6813430B60204BD6
:103120001B6803F007033A689A4201D0012332E09A
:103130007B681B6803F00403002B08D0194B5B6805
:1031400023F4E0627B68DB68164913434B607B68BD
:103150001B6803F00803002B09D0124B5B6823F4B3
:1031600060527B681B69DB000E4913434B6000F023
:1031700021F802460B4B5B681B0903F00F030A4959
:10318000CB5C22FA03F3094A1360094B1B6818460B
:10319000FFF712F8002318461037BD4680BD00BF68
:1031A0000020024000100240707D00081000002046
:1031B0001400002090B48AB000AF294B3C1D0FCB07
:1031C00084E80F0040F201233B800023FB610023D1
:1031D000BB6100237B6200237B6100233B62214BA8
:1031E0005B68FB61FB6903F00C03042B02D0082B26
:1031F00003D02BE01C4B3B622BE0FB699B0C03F0E4
:103200000F0328333B4413F8243C7B61FB6903F430
:103210008033002B12D0134B5B685B0C03F001036F
:1032200028333B4413F8283CBB617B690E4A03FBFF
:1032300002F2BB69B2FBF3F37B6204E07B690B4AE9
:1032400002FB03F37B627B6A3B6202E0084B3B625A
:1032500000BF3B6A18462837BD4690BC704700BF88
:1032600004700008001002400024F40000093D0032
:1032700000127A0080B485B000AF78600A4B1B68FA
:103280000A4AA2FB03235B0A7A6802FB03F3FB6092
:1032900000BFFB685A1EFA60002BF9D100BF00BFC7
:1032A0001437BD4680BC704710000020D34D62101B
:1032B00080B582B000AF78607B68002B01D101231C
:1032C00076E07B685B6A002B08D17B685B68B3F5AE
:1032D000827F09D07B680022DA6105E07B680022EA
:1032E0001A617B6800225A617B6800229A627B68BF
:1032F00093F85130DBB2002B06D17B68002283F8B3
:1033000050207868FEF7C8F97B68022283F85120C4
:103310007B681B681A687B681B6822F040021A6091
:103320007B685B6803F482727B689B6803F40443E8
:103330001A437B68DB6803F400631A437B681B69EC
:1033400003F002031A437B685B6903F001031A432D
:103350007B689B6903F400731A437B68DB6903F0A5
:1033600038031A437B681B6A03F0800342EA0301B7
:103370007B689B6A03F400527B681B680A431A60EF
:103380007B689B691A0C7B681B6802F004025A6018
:103390007B681B68DA697B681B6822F40062DA616B
:1033A0007B6800225A657B68012283F85120002344
:1033B00018460837BD4680BD80B588B000AFF860BC
:1033C000B9603B601346FB800023FB77FB6893F8F2
:1033D0005030012B01D1022326E1FB68012283F842
:1033E0005020FEF72BFFB861FB88FB82FB6893F847
:1033F0005130DBB2012B02D00223FB770BE1BB681B
:10340000002B02D0FB88002B02D10123FB7702E1C5
:10341000FB68032283F85120FB6800225A65FB6891
:10342000BA681A63FB68FA889A86FB68FA88DA86B3
:10343000FB6800229A63FB6800229A87FB680022DF
:10344000DA87FB6800225A64FB6800221A64FB6872
:103450009B68B3F5004F0FD1FB681B681A68FB68C7
:103460001B6822F040021A60FB681B681A68FB6840
:103470001B6842F480421A60FB681B681B6803F0FB
:103480004003402B07D0FB681B681A68FB681B6869
:1034900042F040021A60FB68DB68B3F5006F4BD165
:1034A000FB685B68002B02D0FB8A012B3ED1FB68D6
:1034B0001B6B1A88FB681B68DA60FB681B6B9A1C25
:1034C000FB681A63FB68DB8E9BB2013B9AB2FB6818
:1034D000DA862BE0FB681B689B6803F00203022B73
:1034E00012D1FB681B6B1A88FB681B68DA60FB68EB
:1034F0001B6B9A1CFB681A63FB68DB8E9BB2013B5B
:103500009AB2FB68DA8611E0FEF798FE0246BB69C4
:10351000D31A3A689A4203D83B68B3F1FF3F02D10D
:103520003B68002B02D10323FB7774E0FB68DB8E42
:103530009BB2002BCED14CE0FB685B68002B02D025
:10354000FB8A012B40D1FB681A6BFB681B680C33AC
:1035500012781A70FB681B6B5A1CFB681A63FB68B5
:10356000DB8E9BB2013B9AB2FB68DA862CE0FB68EB
:103570001B689B6803F00203022B13D1FB681A6BD4
:10358000FB681B680C3312781A70FB681B6B5A1CA3
:10359000FB681A63FB68DB8E9BB2013B9AB2FB6847
:1035A000DA8611E0FEF74AFE0246BB69D31A3A6892
:1035B0009A4203D83B68B3F1FF3F02D13B68002B2E
:1035C00002D10323FB7726E0FB68DB8E9BB2002B46
:1035D000CDD1BA693968F86800F0B8FB0346002B12
:1035E00002D0FB6820225A65FB689B68002B0AD139
:1035F00000233B61FB681B68DB683B61FB681B6861
:103600009B683B613B69FB685B6D002B02D001232B
:10361000FB7700E000BFFB68012283F85120FB68C4
:10362000002283F85020FB7F18462037BD4680BD1E
:1036300080B588B002AFF860B9603B601346FB808C
:103640000023FB75FB685B68B3F5827F12D1FB68D2
:103650009B68002B0ED1FB68042283F85120FA8866
:103660003B6800931346BA68B968F86800F0F1F84F
:103670000346EAE0FB6893F85030012B01D10223A6
:10368000E3E0FB68012283F85020FEF7D7FD3861A4
:10369000FB6893F85130DBB2012B02D00223FB759B
:1036A000CAE0BB68002B02D0FB88002B02D10123AB
:1036B000FB75C1E0FB68042283F85120FB680022FF
:1036C0005A65FB68BA689A63FB68FA889A87FB6850
:1036D000FA88DA87FB6800221A63FB6800229A8660
:1036E000FB680022DA86FB6800221A64FB6800226D
:1036F0005A64FB689B68B3F5004F0FD1FB681B68E9
:103700001A68FB681B6822F040021A60FB681B689D
:103710001A68FB681B6822F480421A60FB681B6809
:103720001B6803F04003402B07D0FB681B681A6836
:10373000FB681B6842F040021A60FB68DB68002BE4
:1037400062D12EE0FB681B689B6803F00103012B2C
:1037500015D1FB681B6803F10C02FB689B6B1278A8
:10376000D2B21A70FB689B6B5A1CFB689A63FB68A9
:10377000DB8F9BB2013B9AB2FB68DA8711E0FEF760
:103780005DFD02463B69D31A3A689A4203D83B680A
:10379000B3F1FF3F02D13B68002B02D10323FB753D
:1037A0004AE0FB68DB8F9BB2002BCBD131E0FB689A
:1037B0001B689B6803F00103012B13D1FB681B6896
:1037C000DA68FB689B6B92B21A80FB689B6B9A1C51
:1037D000FB689A63FB68DB8F9BB2013B9AB2FB6884
:1037E000DA8711E0FEF72AFD02463B69D31A3A68F0
:1037F0009A4203D83B68B3F1FF3F02D13B68002BEC
:1038000002D10323FB7517E0FB68DB8F9BB2002B13
:10381000CDD13A693968F86800F046FA0346002BC2
:1038200002D0FB6820225A65FB685B6D002B02D03A
:103830000123FB7500E000BFFB68012283F85120E3
:10384000FB68002283F85020FB7D18461837BD46E0
:1038500080BD80B58CB000AFF860B9607A607B80C5
:103860000123FB62002387F82B30FB6893F850306C
:10387000012B01D102238AE1FB68012283F8502049
:10388000FEF7DCFC7862FB6893F8513087F8233050
:10389000FB685B68FB617B887B8397F82330012B97
:1038A0000FD0FB69B3F5827F07D1FB689B68002BC3
:1038B00003D197F82330042B03D0022387F82B3051
:1038C0005BE1BB68002B05D07B68002B02D07B88B6
:1038D000002B03D1012387F82B304EE1FB6893F8CE
:1038E0005130DBB2042B03D0FB68052283F8512052
:1038F000FB6800225A65FB687A689A63FB687A88DD
:10390000DA87FB687A889A87FB68BA681A63FB686B
:103910007A88DA86FB687A889A86FB6800221A64BD
:10392000FB6800225A64FB681B681B6803F04003B5
:10393000402B07D0FB681B681A68FB681B6842F0C5
:1039400040021A60FB68DB68B3F5006F78D1FB6852
:103950005B68002B02D07B8B012B66D1FB681B6B55
:103960001A88FB681B68DA60FB681B6B9A1CFB6893
:103970001A63FB68DB8E9BB2013B9AB2FB68DA8666
:1039800053E0FB681B689B6803F00203022B1BD10A
:10399000FB68DB8E9BB2002B16D0FB6A012B13D188
:1039A000FB681B6B1A88FB681B68DA60FB681B6B83
:1039B0009A1CFB681A63FB68DB8E9BB2013B9AB2D0
:1039C000FB68DA860023FB62FB681B689B6803F0D8
:1039D0000103012B19D1FB68DB8F9BB2002B14D0A4
:1039E000FB681B68DA68FB689B6B92B21A80FB6805
:1039F0009B6B9A1CFB689A63FB68DB8F9BB2013B55
:103A00009AB2FB68DA870123FB62FEF717FC0246D5
:103A10007B6AD31ABA6B9A4207D8BB6BB3F1FF3FEC
:103A200003D0032387F82B30A7E0FB68DB8E9BB223
:103A3000002BA6D1FB68DB8F9BB2002BA1D17CE0D1
:103A4000FB685B68002B02D07B8B012B6BD1FB6882
:103A50001A6BFB681B680C3312781A70FB681B6BBF
:103A60005A1CFB681A63FB68DB8E9BB2013B9AB25F
:103A7000FB68DA8657E0FB681B689B6803F002036B
:103A8000022B1CD1FB68DB8E9BB2002B17D0FB6A8C
:103A9000012B14D1FB681A6BFB681B680C3312787E
:103AA0001A70FB681B6B5A1CFB681A63FB68DB8E81
:103AB0009BB2013B9AB2FB68DA860023FB62FB688B
:103AC0001B689B6803F00103012B19D1FB68DB8F96
:103AD0009BB2002B14D0FB681B68DA68FB689B6BF9
:103AE000D2B21A70FB689B6B5A1CFB689A63FB6826
:103AF000DB8F9BB2013B9AB2FB68DA870123FB6242
:103B0000FEF79CFB02467B6AD31ABA6B9A4203D833
:103B1000BB6BB3F1FF3F02D1BB6B002B03D103237F
:103B200087F82B3029E0FB68DB8E9BB2002BA2D1FB
:103B3000FB68DB8F9BB2002B9DD17A6AB96BF8686A
:103B400000F004F90346002B06D0012387F82B3040
:103B5000FB6820225A6510E0FB689B68002B0BD1A4
:103B600000237B61FB681B68DB687B61FB681B686B
:103B70009B687B617B6900E000BFFB68012283F8E2
:103B80005120FB68002283F8502097F82B3018460C
:103B90003037BD4680BD000080B588B000AFF8600A
:103BA000B9603B601346FB71FEF748FB0246BB6AF7
:103BB0009B1A3A681344FB61FEF740FBB861394B2E
:103BC0001B685B011B0DFA6902FB03F37B6154E088
:103BD0003B68B3F1FF3F50D0FEF730FB0246BB69B4
:103BE000D31AFA699A4202D9FB69002B3DD1FB68CE
:103BF0001B685A68FB681B6822F0E0025A60FB6889
:103C00005B68B3F5827F11D1FB689B68B3F5004F09
:103C100004D0FB689B68B3F5806F07D1FB681B6815
:103C20001A68FB681B6822F040021A60FB689B6AF6
:103C3000B3F5005F0FD1FB681B681A68FB681B684F
:103C400022F400521A60FB681B681A68FB681B6844
:103C500042F400521A60FB68012283F85120FB688D
:103C6000002283F85020032317E07B69002B01D149
:103C70000023FB617B69013B7B61FB681B689A68E1
:103C8000BB681340BA689A420CBF01230023DBB221
:103C90001A46FB799A429BD1002318462037BD462D
:103CA00080BD00BF1000002080B586B002AFF86074
:103CB000B9607A60FB685B68B3F5827F11D1FB68FD
:103CC0009B68B3F5004F04D0FB689B68B3F5806F29
:103CD00007D1FB681B681A68FB681B6822F040026A
:103CE0001A60FB685B68B3F5827F17D1FB689B683D
:103CF000B3F5806F12D17B680093BB68002201216D
:103D0000F868FFF749FF0346002B1AD0FB685B6D8C
:103D100043F02002FB685A65032313E07B6800939D
:103D2000BB6800228021F868FFF736FF0346002BAE
:103D300007D0FB685B6D43F02002FB685A650323E4
:103D400000E0002318461037BD4680BD80B586B020
:103D500002AFF860B9607A607B680093BB680022AC
:103D60008021F868FFF718FF0346002B07D0FB6897
:103D70005B6D43F02002FB685A65032300E00023DB
:103D800018461037BD4680BD80B586B000AF78605C
:103D900039607B68002B01D1012393E07B6893F8A5
:103DA0003D30DBB2002B06D17B68002283F83C203B
:103DB0007868FEF773F97B68022283F83D207B6800
:103DC0001B689B687A68126823F4804323F007031A
:103DD00093607B681A687B6804331946104600F0CC
:103DE00003F97B681B689B687B617B681B689B6928
:103DF0003B617B681B681B6AFB603B681B687A69D8
:103E000013437B613B6923F4407323F003033B615D
:103E10003B689A683B689B691B0213433A691343EA
:103E20003B613B6923F4406323F00C033B613B6936
:103E300023F4704323F0F0033B613B68DA683B688E
:103E4000DB691B0213433A6913433B613B681B69FF
:103E50001A013B681B6A1B0313433A6913433B6116
:103E6000FB6823F02203FB603B685A683B685B6990
:103E70001B011343FA681343FB607B681B687A6974
:103E80009A607B681B683A699A617B681B68FA686C
:103E90001A627B68012283F846207B68012283F83E
:103EA0003E207B68012283F83F207B68012283F853
:103EB00042207B68012283F843207B68012283F83B
:103EC0003D20002318461837BD4680BD80B584B01C
:103ED00000AF786039607B6893F83E30FB737B6895
:103EE00093F83F30BB737B6893F842307B737B68F9
:103EF00093F843303B733B68002B10D1FB7B012BC5
:103F000002D17B7B012B01D0012369E07B68022277
:103F100083F83E207B68022283F8422031E03B6830
:103F2000042B10D1BB7B012B02D13B7B012B01D099
:103F3000012355E07B68022283F83F207B68022240
:103F400083F843201DE0FB7B012B08D1BB7B012BB9
:103F500005D17B7B012B02D13B7B012B01D00123BF
:103F60003EE07B68022283F83E207B68022283F8D1
:103F70003F207B68022283F842207B68022283F87C
:103F800043203B68002B03D03B68042B08D00FE094
:103F90007B681B6801220021184600F087F816E0B4
:103FA0007B681B6801220421184600F07FF80EE0B0
:103FB0007B681B6801220021184600F077F87B68B7
:103FC0001B6801220421184600F070F800BF7B68CE
:103FD0001B681A687B681B6842F001021A600023A4
:103FE00018461037BD4680BD80B485B000AF7860FC
:103FF00039607B681B68FB607B68294A93420BD061
:104000007B68B3F1804F07D07B68264A934203D088
:104010007B68254A934208D1FB6823F07003FB605C
:104020003B685B68FA681343FB607B681C4A9342F9
:104030000BD07B68B3F1804F07D07B68194A93425D
:1040400003D07B68184A934208D1FB6823F440737D
:10405000FB603B68DB68FA681343FB60FB6823F096
:1040600080023B685B691343FB607B68FA681A60F7
:104070003B689A687B68DA623B681A687B689A6278
:104080007B68074A934203D13B681A697B681A63CD
:104090007B6801225A6100BF1437BD4680BC70475F
:1040A000002C0140000400400008004080B487B0AC
:1040B00000AFF860B9607A60BB6803F01F030122AB
:1040C00002FA03F37B61FB681A6A7B69DB431A40DF
:1040D000FB681A62FB681A6ABB6803F01F03796801
:1040E00001FA03F31A43FB681A6200BF1C37BD468E
:1040F00080BC704780B485B000AF786039607B6861
:1041000093F83C30012B01D1022346E07B68012269
:1041100083F83C207B68022283F83D207B681B6883
:104120005B68FB607B681B689B68BB60FB6823F077
:104130007003FB603B681B68FA681343FB607B6895
:104140001B68FA685A607B681B68164A93420ED057
:104150007B681B68B3F1804F09D07B681B68124AEB
:10416000934204D07B681B68104A93420CD1BB6811
:1041700023F08003BB603B685B68BA681343BB6095
:104180007B681B68BA689A607B68012283F83D20CF
:104190007B68002283F83C20002318461437BD4674
:1041A00080BC7047002C0140000400400008004023
:1041B000014B1868704700BF1C00002070B5002636
:1041C0000C4D0D4C641BA410A64209D102F0FCFE5C
:1041D00000260A4D0A4C641BA410A64205D170BDEE
:1041E00055F8043B98470136EEE755F8043B9847ED
:1041F0000136F2E75C8100085C8100085C81000800
:10420000608100080A44914200F1FF3300D17047F9
:1042100010B511F8014B914203F8014FF9D110BDCF
:10422000884210B501EB020402D98442234607D824
:10423000431EA14208D011F8012B03F8012FF8E723
:10424000014602448A4200D110BD13F8014D02F824
:10425000014DF7E703460244934200D1704703F84B
:10426000011BF9E7002B2DE9F0471F46BBBF03F107
:1042700000431F4600232D2388B01446129A109D38
:104280001370149BDDF84CA023F02008B8F1460F02
:1042900005D0B8F1450F00D10135022300E003231A
:1042A00007AA049206AACDE902A2CDE9003522466A
:1042B0003B4600F0E5FCB8F1470F064602D1119BE2
:1042C000DB0722D5B8F1460F06EB050910D133788C
:1042D000302B0AD10022002320463946FCF764FB2C
:1042E00018B9C5F10105CAF80050DAF80030994450
:1042F0000022002320463946FCF756FB08B1CDF8D2
:104300001C903022079B4B4507D33046079B159ADC
:104310009B1B136008B0BDE8F087591C07911A7009
:10432000F0E70346F7B5002903F8022BB6BF2D22AC
:104330002B224942092942702BDD0DF10704A446C6
:104340000A2791FBF7F60A46A64607FB1615632ACD
:1043500005F13005314604F1FF340EF8015CF0DC64
:104360003031AEF1020504F8011C2946441C6145B8
:104370000AD30DF10902A2EB0E02654588BF0022A7
:104380001344181A03B0F0BD11F8012B04F8012FE3
:10439000EDE7302330318370C170031DF1E7000079
:1043A0002DE9F04F91B00C46DDF8688016461F46A7
:1043B000054601F053FA036818460993FBF7C8FE57
:1043C00000230E93D8F800300A90073323F0070338
:1043D00003F1080294F81890D4F800B0C8F800204F
:1043E000D3E90023C4E91223D4E9128A2AF0004356
:1043F0000B934FF0FF3240469C4B0B99FCF706FBAA
:1044000070BB4FF0FF324046984B0B99FCF7E0FA37
:1044100030BB0022002340465146FCF7CFFA10B1D2
:104420002D2384F84330924B9248B9F1470F94BF43
:104430009846804603234FF0000A23612BF00403C3
:10444000236033462146284600970FAA00F0D4F98E
:10445000013040F090804FF0FF3011B0BDE8F08F98
:104460004246534640465146FCF7D0FA48B1BAF1AD
:10447000000FB8BF2D238048B8BF84F843307F4B6E
:10448000D3E7636809F0DF015A1C42D10623636059
:10449000002206920EAACDE904920DAA4BF4806385
:1044A00003920DF13302CDE9013223606368424685
:1044B0000093284653460B91FFF7D4FE0B99804694
:1044C00047290D9908D1C81C02DB6368994240DD79
:1044D000A9F102095FFA89F9B9F1650F1FD84A46B7
:1044E000013904F150000D91FFF71BFF0E9A82462F
:1044F0001318012A236102DC2268D20701D5013397
:1045000023619DF83330002B9BD02D2384F843305A
:1045100097E74729BCD1002BBAD10123B7E7B9F1FE
:10452000660F18D1002963680BDD216113B9226879
:10453000D00702D501330B4423614FF0000AA16577
:10454000DFE713B92268D20701D50233F4E701236C
:10455000F2E74FF067090E9B994205DB2368216162
:10456000D807EAD54B1CE7E70029CCBF0122C1F1EF
:1045700002021344E0E723685A0507D42369424640
:1045800031462846B84701302BD164E7B9F1650FB1
:1045900040F2DD80D4E9120100220023FCF704FA86
:1045A000002833D0012331462846354AB847013028
:1045B0003FF451AFDDE90D239A4202DB2368D807AF
:1045C0000FD5DDE9092331462846B84701303FF4CD
:1045D00042AF4FF0000804F11A090E9B013B43451E
:1045E00009DC23689B0700F10281E0680F9B984279
:1045F000B8BF184631E701234A4631462846B84736
:1046000001303FF428AF08F10108E6E70D9B002BCD
:1046100038DC012331462846194AB84701303FF4B7
:104620001AAFDDE90D23134302D12368D907D8D58A
:10463000DDE9092331462846B84701303FF40BAF86
:104640004FF0000904F11A0A0D9B5B424B4501DC57
:104650000E9B94E70123524631462846B847013065
:104660003FF4F9AE09F10109EEE700BFFFFFEF7F6C
:10467000847D0008887D0008907D00088C7D0008FE
:10468000947D00080E9AA36D9A42A8BF1A46002A8C
:10469000914637DC4FF0000B29EAE97904F11A0260
:1046A000D4F858A0AAEB09035B4533DCDDE90D2300
:1046B0009A423BDB2368DA0738D40E9B0D99A3EBB3
:1046C0000A02A3EB01099145A8BF9146B9F1000F79
:1046D00034DC4FF0000829EAE97904F11A0ADDE92F
:1046E0000D239B1AA3EB090343457FF77AAF012300
:1046F000524631462846B84701303FF4ACAE08F187
:104700000108ECE71346314642462846B8470130D7
:10471000C0D1A0E60123314628460B92B8470130AC
:104720003FF499AE0B9A0BF1010BB9E73146DDE985
:1047300009232846B8470130BFD18CE64B463146A5
:10474000284608EB0A02B8470130C2D183E60E9A28
:10475000012A01DCDB0737D50123424631462846D2
:10476000B84701303FF477AEDDE9092331462846EA
:10477000B84701303FF46FAED4E9120100220023A4
:10478000FCF712F9D8B90E9B08F10102013B314642
:104790002846B84701300ED15DE601234A4631462E
:1047A0002846B84701303FF456AE08F101080E9B89
:1047B000013B4345F1DC534604F15002E0E64FF083
:1047C000000804F11A09F2E701234246DFE701235A
:1047D0004A4631462846B84701303FF43CAE08F11E
:1047E0000108E3680F995B1A4345F0DCFDE64FF0E2
:1047F000000804F11909F4E72DE9F0471646994637
:104800008A680B6907469342B8BF1346336091F834
:1048100043200C46DDF820800AB101333360236861
:10482000990642BF336802333360256815F00605E8
:1048300006D104F1190AE36832689B1AAB4228DCFE
:1048400094F84320131E226818BF012392062DD42A
:104850004946384604F14302C047013020D023685E
:10486000E56803F00603042B18BF002532684FF0FB
:104870000006A36808BFAD1A226908BF25EAE575DE
:104880009342C4BF9B1AED181A34B5421AD10020C6
:1048900008E00123524649463846C047013003D15B
:1048A0004FF0FF30BDE8F0870135C4E73020E11854
:1048B00081F843005A1C94F845102244023382F8D0
:1048C0004310C5E70123224649463846C047013018
:1048D000E6D00136D9E700002DE9FF470F7E91466B
:1048E000782F80460C469A460C9D01F1430207D86A
:1048F000622F0AD8002F00F0D980582F00F0A48032
:1049000004F1420584F842703AE0A7F16303152BE5
:10491000F6D801A151F823F0714900088549000833
:10492000014900080149000801490008014900083F
:1049300085490008014900080149000801490008AB
:1049400001490008934A0008B5490008754A000863
:104950000149000801490008B54A0008014900085A
:10496000B549000801490008014900087D4A0008CE
:104970002B681A1D1B682A6004F1420584F8423036
:104980000123A4E020682968060601F104030AD582
:104990000E682B60002E03DA2D23764284F8433014
:1049A0000A235E4819E00E6810F0400F2B6018BF14
:1049B00036B2EFE72B682068191D2960010601D582
:1049C0001E6802E04606FBD51E886F2F0CBF082329
:1049D0000A235248002184F843106568002DA8BFBF
:1049E0002168A560A4BF21F0040121600EB9002D4B
:1049F0004DD01546B6FBF3F103FB1167C75D05F813
:104A0000017D3746BB420E46F4D9082B0BD12368F3
:104A1000DE0708D5236961689942DEBF302305F8B7
:104A2000013C05F1FF35521B22614B4621464046B1
:104A3000CDF800A003AAFFF7DFFE01304CD14FF004
:104A4000FF3004B0BDE8F087344881F8457029682C
:104A5000236851F8046B29601D0614D5DF0744BF95
:104A600043F0200323601EB9236823F02003236052
:104A70001023AFE7236843F02003236078232848FE
:104A800084F84530E3E7590648BFB6B2E6E7154675
:104A9000BBE72B682668181D6169286035061B680E
:104AA00001D5196002E07006FBD519800023154678
:104AB0002361BAE72B6800211A1D2A601D6862680D
:104AC000284600F0D7FE08B1401B60606368236190
:104AD000002384F84330A8E72A4649464046236924
:104AE000D0470130ABD023689B0713D4E068039B09
:104AF0009842B8BF1846A4E70123324649464046CB
:104B0000D04701309BD00135E36803995B1AAB4273
:104B1000F2DCEBE7002504F11906F5E7967D0008C5
:104B2000A77D00080EB46FF0004100B59CB01DAB2E
:104B300002900690079104910848094953F8042B04
:104B40000591006802A9019301F070FB0022029B0D
:104B50001A701CB05DF804EB03B070471C00002015
:104B60000802FFFF2DE9F74F03690C690746A342CE
:104B7000C0F28280013C00F1140501F1140805EB3C
:104B80008403019358F8243055F8242001339A42C5
:104B9000B2FBF3F64FEA840B08EB840931D34FF0F4
:104BA000000E4046AC46F24650F8042B93B206FB8A
:104BB00003E3120C4FEA134E9BB206FB02E2AAEB90
:104BC0000303DCF800A04FEA124E1FFA8AFA53449E
:104BD000DCF800A092B2C2EB1A4202EB23429BB275
:104BE00043EA024381454FEA224A4CF8043BDBD2B8
:104BF00055F80B302BB9019B043B9D421A462FD32D
:104C00003C61384601F0C2F8002825DB28464FF009
:104C1000000C013658F8041BD0F800E08BB2ACEB66
:104C200003031FFA8EF213440A0CC2EB1E4202EB7E
:104C300023429BB243EA0243C1454FEA224C40F86B
:104C4000043BE7D255F8242005EB840322B9043B4A
:104C50009D421A460AD33C61304603B0BDE8F08F4E
:104C60001268043B002ACBD1013CC6E71268043B22
:104C7000002AF0D1013CEBE70020EEE70000000045
:104C80002DE9F04F16461F46446A99B00546CDE916
:104C90000467DDF8948074B9102000F0E3FD02464B
:104CA000686220B9EA21A84BA84801F0CFFBC0E90F
:104CB00001440460C4606B6A196851B15A680123E9
:104CC00093404A608B60284600F022FE00226B6A07
:104CD0001A603B1EAFBF0023012223F0004305935F
:104CE000A8BFC8F80030DDF81490994BB8BFC8F8D9
:104CF000002033EA090319D142F20F73249A13609A
:104D0000C9F31303334300F07F85269B53B9914BBE
:104D100022E0914B03930833269A1360039819B04D
:104D2000BDE8F08F8B4B03930333F5E7DDE90434E3
:104D3000CDE90C34DDE90C0100220023FBF734FE41
:104D4000804658B10123249A1360269B002B00F063
:104D5000588582481860431E0393DFE716AB019322
:104D600017AB00932846DDE90C2301F0B7F8C9F32F
:104D70000A548346002C7FD0DDE90C010D9BA4F280
:104D8000FF34C3F3130343F07F5141F44011CDF8D6
:104D90004C800022724BFBF7E7F965A3D3E90023AF
:104DA000FBF79AFB64A3D3E90023FBF7DFF9064680
:104DB00020460F46FBF726FB61A3D3E90023FBF750
:104DC0008BFB02460B4630463946FBF7CFF90646C9
:104DD0000F46FBF731FE002282460023304639465B
:104DE000FBF7ECFD48B15046FBF70CFB32463B4667
:104DF000FBF7DAFD08B90AF1FF3ABAF1160F58D8F5
:104E0000DDE90C01574B03EBCA03D3E90023FBF7A1
:104E1000D5FD00284FD000230AF1FF3A0F93169BCF
:104E20001C1B631E099349BFC4F1010300230693B1
:104E3000002354BF06930993BAF1000F3DDB099B91
:104E4000CDF838A05344099300230A93229B092BE1
:104E500000F28C80052BC4BF043B2293229BC8BF69
:104E60000024A3F10203D8BF0124032B00F28A809F
:104E7000DFE803F02D4F4D5BDDE916431C4404F2DF
:104E80003243202BC3BFC3F1400304F2124009FA9E
:104E900003F3C3F12003C6BF26FA00F0184306FA55
:104EA00003F0FBF79FFA0123A1F1F871013C139382
:104EB0006FE70123B2E70F90B1E7069BA3EB0A036C
:104EC0000693CAF100030A9300230E93BEE7002362
:104ED0000B93239B002B58DC4FF001094B46CDF878
:104EE0002090CDF88C900022686A4260042202F182
:104EF00014069E4241684ED9284600F0C9FC039032
:104F000000284CD102464FF4D571174BCCE6012353
:104F1000DEE700230B93239B0AEB030909F101034E
:104F2000012B0893B8BF0123DDE70123F2E700BF9F
:104F300061436F63A787D23FB3C8608B288AC63F9F
:104F4000FB799F501344D33FC57D0008DC7D0008EA
:104F50000000F07FC17D0008B87D0008957D000845
:104F60000000F83FD07E0008377E000801240023AF
:104F70000B9422934FF0FF3900221223CDF820909A
:104F80002392B0E701230B93F4E7DDF88C904B46B6
:104F9000CDF82090A7E7013141605200A7E76B6A86
:104FA000039A1A60089B0E2B00F2A880002C00F0D8
:104FB000A580BAF1000F34DD9A4A0AF00F0302EB24
:104FC000C3031AF4807FD3E90034CDE910344FEAEB
:104FD0002A1416D0DDE90C01934B0327D3E90823EB
:104FE000FBF7A4FBCDE9040104F00F048E4E54B985
:104FF000DDE91023DDE90401FBF798FBCDE90401AD
:1050000029E00227F2E7E10708D5DDE91001D6E93A
:105010000023FBF761FACDE910010137641008366F
:10502000E5E700F0A580DDE90C01CAF100047D4B45
:1050300004F00F0203EBC203D3E90023FBF74CFAA1
:1050400002270023CDE90401774E2411002C40F003
:105050008480002BD2D10F9B002B00F08B80DDE9E8
:105060000434CDE91034DDE9100100226F4BFBF769
:10507000A5FC00287ED0089B002B7BD0B9F1000F47
:1050800038DDDDE910010022694BFBF725FA4C46BB
:10509000CDE904010AF1FF3801373846FBF7B2F9D0
:1050A000DDE90423FBF718FA0022624BFBF75EF8F8
:1050B000A1F15076CDE910011196002C5DD1DDE90A
:1050C000040100225C4BFBF74FF802460B46CDE98A
:1050D00004233346109AFBF78FFC002840F09C8293
:1050E000DDE90401109A06F10043FBF767FC002894
:1050F00040F09082DDE90C34CDE90434179B002B9D
:10510000C0F25281BAF10E0F00F34E81454B03EB12
:10511000CA03D3E90034CDE90634239B002B80F287
:10512000DB80089B002B00F3D78040F07282DDE922
:1051300006010022404BFBF7CFF9DDE90423FBF722
:1051400051FC089C2646002840F048823123039FEA
:105150000AF1010A07F8013B44E2E20705D5D6E966
:105160000023FBF7B9F901230137641008366DE716
:10517000022770E7D046089C8FE70399294B21440A
:1051800012910B9903EBC403DDE9106753E9022385
:10519000002955D000202949FBF7C8FA3B46324682
:1051A000FAF7E2FFCDE91001039FDDE90401FBF707
:1051B00043FC0446FBF726F902460B46DDE90401F1
:1051C000FAF7D2FF02460B463034CDE90423DDE97D
:1051D000102307F8014BFBF7F1FB002874D1DDE940
:1051E000042300201149FAF7BFFFDDE91023FBF784
:1051F000E5FB002840F0B780129B9F423FF47AAF56
:10520000DDE9100100220A4BFBF766F90022CDE927
:105210001001DDE90401064BFBF75EF9CDE904015D
:10522000C3E700BFD07E0008A87E00080000F03F62
:105230000000244000001C40000014400000E03F3B
:1052400030463946FBF748F9129BCDE91001039C23
:105250001493DDE90401FBF7EFFB1590FBF7D2F89F
:1052600002460B46DDE90401FAF77EFF159B064670
:10527000303304F8013B129B0F469C424FF0000272
:1052800024D1DDE91001B04BFAF770FF02460B465E
:1052900030463946FBF7B0FB002863D1DDE9102327
:1052A0000020A949FAF760FF02460B46304639460E
:1052B000FBF784FB00283FF41DAF149F7B1E149363
:1052C00017F8013C302BF8D0C2463BE09F4BFBF770
:1052D00003F9CDE90401BCE7039FDDE90489DDE9B9
:1052E000062340464946FBF721FAFBF7A5FB044697
:1052F000FBF788F8DDE90623FBF7EEF802460B46DC
:1053000040464946FAF730FF04F1300607F8016BD2
:10531000039EDDF820C0BE1BB44502460B4636D1C5
:10532000FAF724FFDDE9062380468946FBF764FB94
:1053300058BBDDE9062340464946FBF735FB08B17B
:10534000E10722D42846594600F0E2FA00233B70D8
:10535000249B0AF101001860269B002B3FF4DEAC71
:105360001F60DBE427463B461F4613F8012D392A10
:1053700007D1039A9A42F7D13022039908F1010824
:105380000A701A7801321A709EE7D046EBE70022C5
:105390006E4BFBF7A1F80022002380468946FBF7FD
:1053A00003FB00289BD0CDE70B9A002A00F0D080A9
:1053B000229A012A00F3AE80139A002A00F0A680F8
:1053C00003F233430A9C069F069A01211A4406926F
:1053D000099A28461A44099200F050FB0646002F0D
:1053E0000CDD099B002B09DDBB42A8BF3B46069A9A
:1053F000FF1AD21A0692099AD31A09930A9BF3B19B
:105400000B9B002B00F0A880002C10DD31462246BB
:10541000284600F0F1FB5A4601460646284600F0B1
:1054200043FB80465946284600F072FAC3460A9B61
:105430001A1B04D05946284600F0DEFB83460121A2
:10544000284600F01BFB0E9B0446002B40F3868091
:105450001A460146284600F0CFFB229B0446012B4A
:105460007FDD4FF00008236904EB8303186900F027
:10547000B7FAC0F12000099B184410F01F0000F09B
:105480009280C0F12003042B40F38A80C0F11C00FD
:10549000069B074403440693099B03440993069B18
:1054A000002B05DD59461A46284600F0FFFB8346CF
:1054B000099B002B05DD21461A46284600F0F6FB25
:1054C00004460F9B002B70D02146584600F05EFC2E
:1054D00000286ADA002359460A22284600F03AFAE0
:1054E0000B9B83460AF1FF3A002B00F09481314672
:1054F00000230A22284600F02DFAB9F1000F0646D3
:1055000000F39380229B022B57DC8EE0169BC3F1A5
:10551000360357E7089B5C1E0A9BA342B7BF0A9B52
:105520001C1BE21A0E9BBEBF0A949B180E93089B8D
:10553000B8BF0024002BBBBF069B089A069F9F1A8A
:10554000ACBF089B00233FE70000E03F0000244081
:105550000A9C069F0B9E42E70A9A6BE7229B012B4F
:1055600019DC049BBBB9059BC3F313039BB9059BD3
:1055700023F000431B0D1B0583B14FF00108069B70
:1055800001330693099B013309930E9B002B7FF493
:105590006AAF01206FE74FF00008F6E79846F4E79E
:1055A0003FF47DAF18461C3072E7089B002B36DCB9
:1055B000229B022B33DDDDF82090B9F1000F0DD1D5
:1055C00021464B460522284600F0C4F90146044610
:1055D000584600F0DBFB00283FF7B8AD239B039F44
:1055E0006FEA030A4FF000082146284600F090F9C0
:1055F000002E3FF4A7AEB8F1000F05D0B04503D0A0
:105600004146284600F084F93146284600F080F9EA
:1056100098E600242646E1E7C246264696E50B9B1F
:10562000DDF82090002B00F0FD80002F05DD3146D5
:105630003A46284600F03AFB0646B8F1000F5CD027
:105640002846716800F024F9074628B9024640F25E
:10565000EA217F4BFFF728BB326906F10C010232C9
:1056600092000C30FEF7CEFD01223946284600F0AC
:105670001DFBB0460646039B01330893039B4B4436
:105680000A93049B03F001030993089B2146013B05
:1056900058460493FFF766FA0346414630330690B6
:1056A00058460B9300F072FB32468146214628464D
:1056B00000F088FBC26807460B9B02BB01465846B8
:1056C00000F064FB02460B9B39462846CDE90B32BD
:1056D00000F01EF9229B0C9A089F43EA0201099BE5
:1056E0000B430B9B0DD1392B29D0B9F1000F01DDF4
:1056F000069B3133049A137076E73046B9E70122EE
:10570000E2E7B9F1000F06DB229941EA090909999C
:1057100059EA010120D1002AECDD59460122284630
:10572000089300F0C3FA2146834600F02FFB0028BF
:10573000089B02DCDED1DA07DCD5392BD8D139233E
:10574000049A13703B461F4617F8012C013B392A77
:1057500050D001321A7047E7002A03DD392BEED012
:105760000133C7E7089A0A9902F8013C8A422AD015
:10577000594600230A22284600F0ECF8B04583463B
:105780004FF000034FF00A024146284607D100F0CF
:10579000E1F880460646089B0133089375E700F060
:1057A000D9F83146804600230A22284600F0D2F874
:1057B0000646F0E7B9F1000FCCBF4F4601274FF086
:1057C0000008039A1744594601222846089300F01E
:1057D0006DFA2146834600F0D9FA0028B2DC02D1E6
:1057E000089BDB07AED43B461F4613F8012D302A39
:1057F000FAD0F9E6039A9A42A5D131230AF1010AB7
:1058000079E7144BFFF7A8BA269B002B7FF481AAF7
:10581000114BFFF7A1BAB9F1000F03DC229B022B59
:105820003FF7CBAE039F21465846FFF79BF9039AFB
:1058300000F1300307F8013BBA1A9145BADD594629
:1058400000230A22284600F085F88346EBE700BFD4
:10585000377E0008947D0008B87D00080048704736
:1058600070010020024B0146186800F00FBC00BF19
:105870001C000020034610B5C9B2024493421846EA
:1058800001D1002003E0047801338C42F6D110BD31
:1058900070B5466A04460D4676B91020FFF7E2FF60
:1058A0000246606220B96621174B184800F0CEFD11
:1058B000C0E901660660C660666AF36883B1636A20
:1058C000DB6853F82500B8B9012101FA05F6721D0D
:1058D0002046920000F05EFB60B1C0E901560EE088
:1058E00021220421204600F055FB636AF060DB684A
:1058F000002BE4D1002070BD026843F8252000236E
:10590000C0E90333F7E700BFC57D0008487E000803
:1059100070B5466A05460C4676B91020FFF7A2FF1F
:105920000246686220B98A21084B094800F08EFDC2
:10593000C0E901660660C6603CB16B6A6268DB68FC
:1059400053F82210216043F8224070BDC57D000845
:10595000487E00082DE9F04107460C461E4600200F
:105960000D6901F1140CDCF80030013099B202FB32
:1059700001611E0C0B0C02FB063389B201EB0341E3
:1059800085424FEA13464CF8041BECDC0EB3A368C7
:10599000AB4219DC616838460131FFF779FF804678
:1059A00028B90246B5210C4B0C4800F04FFD226986
:1059B00004F10C01023292000C30FEF723FC214668
:1059C0003846FFF7A5FF444604EB850301355E61C9
:1059D00025612046BDE8F081377E0008487E00083A
:1059E000020C12040346CAB90304102013F07F4FBF
:1059F00004BF1B02083013F0704F04BF1B010430BA
:105A000013F0404F04BF9B000230002B05DB13F066
:105A1000804F00F1010008BF202070470020E5E71B
:105A20000368024613F007000BD0D90721D498076A
:105A300049BF5B089B08012013605CBF0220136014
:105A4000704799B209B910201B0CD9B209B90830B6
:105A50001B0A190704BF1B090430990704BF9B08E0
:105A60000230D90703D45B0800F1010003D01360B2
:105A700070470020704720207047000010B50C468A
:105A80000121FFF705FF024628B94FF4A071044B2E
:105A9000044800F0DBFC01234461036110BD00BF3A
:105AA000377E0008487E00082DE9F04F91460A69CC
:105AB000D9F810300C469A42BEBF0B464C46994668
:105AC0002769D9F810A0A368616807EB0A06B342FA
:105AD00085B0B8BF0131FFF7DBFE30B9024640F2B6
