:020000040800F2
:1000000000500020413D00080D1D00080F1D000894
:10001000111D0008131D0008151D00080000000038
:10002000000000000000000000000000171D000894
:10003000191D0008000000001B1D00081D1D000800
:10004000893D0008893D0008893D0008893D000878
:10005000893D0008893D0008893D0008893D000868
:10006000251D0008893D0008893D0008893D0008DC
:10007000893D0008893D0008893D0008311D0008C0
:10008000893D0008893D0008893D0008893D000838
:10009000893D0008893D0008893D0008411D000890
:1000A000893D0008893D0008893D0008893D000818
:1000B0004D1D0008893D00085D1D0008893D0008B0
:1000C000893D0008893D0008893D0008893D0008F8
:1000D000893D0008893D0008893D0008893D0008E8
:1000E000893D0008893D0008893D000800000000A6
:1000F0000000000000000000000000000000000000
:0C01000000000000000000005FF808F1A3
:1001100010B5054C237833B9044B13B10448AFF341
:1001200000800123237010BD80000020000000002B
:10013000F446000808B5034B1BB103490348AFF36D
:10014000008008BD0000000084000020F446000884
:1001500081F0004102E000BF83F0004330B54FEA78
:1001600041044FEA430594EA050F08BF90EA020FE5
:100170001FBF54EA000C55EA020C7FEA645C7FEA78
:10018000655C00F0E2804FEA5454D4EB5555B8BF9B
:100190006D420CDD2C4480EA020281EA030382EA0C
:1001A000000083EA010180EA020281EA0303362D9E
:1001B00088BF30BD11F0004F4FEA01314FF4801C71
:1001C0004CEA113102D0404261EB410113F0004F83
:1001D0004FEA03334CEA133302D0524263EB43033A
:1001E00094EA050F00F0A780A4F10104D5F1200ED8
:1001F0000DDB02FA0EFC22FA05F2801841F1000133
:1002000003FA0EF2801843FA05F359410EE0A5F106
:1002100020050EF1200E012A03FA0EFC28BF4CF037
:10022000020C43FA05F3C01851EBE37101F00045ED
:1002300007D54FF0000EDCF1000C7EEB00006EEBFA
:100240000101B1F5801F1BD3B1F5001F0CD3490884
:100250005FEA30004FEA3C0C04F101044FEA4452DB
:1002600012F5800F80F09A80BCF1004F08BF5FEA62
:10027000500C50F1000041EB045141EA050130BD42
:100280005FEA4C0C404141EB0101013C28BFB1F554
:10029000801FE9D291F0000F04BF01460020B1FA9F
:1002A00081F308BF2033A3F10B03B3F120020CDA72
:1002B0000C3208DD02F1140CC2F10C0201FA0CF050
:1002C00021FA02F10CE002F11402D8BFC2F1200CB5
:1002D00001FA02F120FA0CFCDCBF41EA0C0190406B
:1002E000E41AA2BF01EB0451294330BD6FEA0404B4
:1002F0001F3C1CDA0C340EDC04F11404C4F120029F
:1003000020FA04F001FA02F340EA030021FA04F3B0
:1003100045EA030130BDC4F10C04C4F1200220FA07
:1003200002F001FA04F340EA0300294630BD21FA45
:1003300004F0294630BD94F0000F83F4801306BF0B
:1003400081F480110134013D4EE77FEA645C18BFFF
:100350007FEA655C29D094EA050F08BF90EA020F96
:1003600005D054EA000C04BF1946104630BD91EA8E
:10037000030F1EBF0021002030BD5FEA545C05D191
:100380004000494128BF41F0004130BD14F58004D0
:100390003CBF01F5801130BD01F0004545F0FE4144
:1003A00041F470014FF0000030BD7FEA645C1ABF79
:1003B000194610467FEA655C1CBF0B46024650EAB0
:1003C000013406BF52EA033591EA030F41F40021DC
:1003D00030BD00BF90F0000F04BF0021704730B562
:1003E0004FF4806404F132044FF000054FF0000137
:1003F00050E700BF90F0000F04BF0021704730B5F8
:100400004FF4806404F1320410F0004548BF4042CC
:100410004FF000013EE700BF42004FEAE2014FEA21
:1004200031014FEA02701FBF12F07F4393F07F4FFC
:1004300081F06051704732F07F4208BF704793F0FF
:100440007F4F04BF41F40021704730B54FF4607412
:1004500001F0004521F000411CE700BF50EA010215
:1004600008BF704730B54FF000050AE050EA0102BE
:1004700008BF704730B511F0004502D5404261EB2E
:1004800041014FF4806404F132045FEA915C3FF46F
:10049000D8AE4FF003025FEADC0C18BF03325FEA0C
:1004A000DC0C18BF033202EBDC02C2F1200300FABD
:1004B00003FC20FA02F001FA03FE40EA0E0021FAE2
:1004C00002F11444BDE600BF70B54FF0FF0C4CF4D0
:1004D000E06C1CEA11541DBF1CEA135594EA0C0F82
:1004E00095EA0C0F00F0DEF82C4481EA030621EABD
:1004F0004C5123EA4C5350EA013518BF52EA0335F8
:1005000041F4801143F4801338D0A0FB02CE4FF0A9
:100510000005E1FB02E506F00042E0FB03E54FF0D9
:100520000006E1FB03569CF0000F18BF4EF0010ED1
:10053000A4F1FF04B6F5007F64F5407404D25FEACD
:100540004E0E6D4146EB060642EAC62141EA555180
:100550004FEAC52040EA5E504FEACE2EB4F1FD0CC2
:1005600088BFBCF5E06F1ED8BEF1004F08BF5FEA40
:10057000500E50F1000041EB045170BD06F00046F2
:1005800046EA010140EA020081EA0301B4EB5C049F
:10059000C2BFD4EB0C0541EA045170BD41F4801197
:1005A0004FF0000E013C00F3AB8014F1360FDEBFBC
:1005B000002001F0004170BDC4F10004203C35DA98
:1005C0000C341BDC04F11404C4F1200500FA05F31B
:1005D00020FA04F001FA05F240EA020001F00042BC
:1005E00021F0004110EBD37021FA04F642EB060132
:1005F0005EEA430E08BF20EAD37070BDC4F10C045C
:10060000C4F1200500FA04F320FA05F001FA04F21F
:1006100040EA020001F0004110EBD37041F100010B
:100620005EEA430E08BF20EAD37070BDC4F1200516
:1006300000FA05F24EEA020E20FA04F301FA05F27E
:1006400043EA020321FA04F001F0004121FA04F226
:1006500020EA020000EBD3705EEA430E08BF20EAF6
:10066000D37070BD94F0000F0FD101F00046400030
:1006700041EB010111F4801F08BF013CF7D041EAB2
:10068000060195F0000F18BF704703F000465200B6
:1006900043EB030313F4801F08BF013DF7D043EA87
:1006A0000603704794EA0C0F0CEA135518BF95EA3D
:1006B0000C0F0CD050EA410618BF52EA4306D1D1C4
:1006C00081EA030101F000414FF0000070BD50EAE3
:1006D000410606BF1046194652EA430619D094EA6D
:1006E0000C0F02D150EA013613D195EA0C0F05D157
:1006F00052EA03361CBF104619460AD181EA0301AB
:1007000001F0004141F0FE4141F470014FF0000062
:1007100070BD41F0FE4141F4780170BD70B54FF0FD
:10072000FF0C4CF4E06C1CEA11541DBF1CEA13557D
:1007300094EA0C0F95EA0C0F00F0A7F8A4EB05045F
:1007400081EA030E52EA03354FEA013100F0888056
:100750004FEA03334FF0805545EA131343EA12631F
:100760004FEA022245EA111545EA10654FEA0026D4
:100770000EF000419D4208BF964244F1FD0404F58D
:10078000407402D25B084FEA3202B61A65EB0305E9
:100790005B084FEA32024FF480104FF4002CB6EBA6
:1007A000020E75EB030E22BFB61A754640EA0C0026
:1007B0005B084FEA3202B6EB020E75EB030E22BF66
:1007C000B61A754640EA5C005B084FEA3202B6EBA7
:1007D000020E75EB030E22BFB61A754640EA9C0066
:1007E0005B084FEA3202B6EB020E75EB030E22BF36
:1007F000B61A754640EADC0055EA060E18D04FEAF4
:10080000051545EA16754FEA06164FEAC30343EA93
:1008100052734FEAC2025FEA1C1CC0D111F4801F60
:100820000BD141EA00014FF000004FF0004CB6E759
:1008300011F4801F04BF01430020B4F1FD0C88BFF8
:10084000BCF5E06F3FF6AFAEB5EB030C04BFB6EB03
:10085000020C5FEA500C50F1000041EB045170BDF6
:100860000EF0004E4EEA113114EB5C04C2BFD4EB23
:100870000C0541EA045170BD41F480114FF0000EA7
:10088000013C90E645EA060E8DE60CEA135594EA23
:100890000C0F08BF95EA0C0F3FF43BAF94EA0C0F26
:1008A0000AD150EA01347FF434AF95EA0C0F7FF49B
:1008B00025AF104619462CE795EA0C0F06D152EAEF
:1008C00003353FF4FDAE1046194622E750EA4106D3
:1008D00018BF52EA43067FF4C5AE50EA41047FF4E4
:1008E0000DAF52EA43057FF4EBAE12E74FEA410247
:1008F000B2F1E04324BFB3F5001CDCF1FE5C0DD97E
:1009000001F0004C4FEAC0024CEA5070B2F1004FC7
:1009100040EB830008BF20F00100704711F0804FCA
:1009200021D113F13872BCBF01F00040704741F48F
:1009300080114FEA5252C2F11802C2F1200C10FA93
:100940000CF320FA02F018BF40F001004FEAC12377
:100950004FEAD32303FA0CFC40EA0C0023FA02F31B
:100960004FEA4303CCE77FEA625307D150EA0133F1
:100970001EBF4FF0FE4040F44000704701F00040C1
:1009800040F0FE4040F40000704700BF30B591B029
:100990002822002106A803F045FA002401940294BD
:1009A000039404940594012206924FF48033079334
:1009B0000A9202250D950E934FF400230F9306A87B
:1009C00001F0F4FE0F230193029503944FF480632A
:1009D00004930594294601A802F020F911B030BD16
:1009E00008B501F095FEFFF7D1FF00F0CBF800F05D
:1009F00069F900F0A3F900F07FF900F099FB00F02D
:100A000073FA00F03BFA00F0A1FA00F007FC00F0E6
:100A1000ABFC00F037FF02E00D4B01221A8000F022
:100A200003FC4FF47A7001F097FE0A4800F086FE4E
:100A3000074A138801339BB21380074A926807491B
:100A4000088802440A8040F2E6329342E7D9E3E79D
:100A5000000000209C000020A4000020CC02002008
:100A600008B5042802D0402803D008BD00F0BEFE1F
:100A7000FBE7114B9B6813F0400F12D10F4802F0B7
:100A8000F1FC0F4802F0EEFC08210E4803F022F8BA
:100A90000D4A136A43F4806313620C4B01221A70EF
:100AA000E3E7064802F012FD094B00225A62094BA7
:100AB00001221A70D9E700BF000C01408402002017
:100AC000F4010020AC010020002C0140B500002002
:100AD00000080040B400002008B50268054B9A42A7
:100AE00000D008BD01224FF48071034802F05EFA85
:100AF000F7E700BF00380040000C014008B503686C
:100B0000B3F1804F03D0174A934213D008BD164863
:100B100002F0A8FC154B1B781BB1013B134A137064
:100B2000F4E7134A136A23F4806313620E4802F059
:100B3000CDFCEBE70F4B9B6813F0400FE6D10E4B5B
:100B400001221A70084802F08DFC08210B4802F0BF
:100B5000C1FF074A136A43F480631362034B052203
:100B60001A70D3E700080040F4010020B50000200F
:100B7000002C0140000C0140A1000020AC0100202D
:100B8000704700002DE9F04389B0002404940594D7
:100B900006940794454B9A6942F010029A619A694B
:100BA00002F010020092009A9A6942F020029A61C3
:100BB0009A6902F020020192019A9A6942F00402B5
:100BC0009A619A6902F004020292029A9A6942F0CA
:100BD00008029A619B6903F008030393039B344E58
:100BE00022461821304602F0E1F9324D22464FF4F8
:100BF0009851284602F0DAF94FF4005304934FF06D
:100C00000309CDF8149004A92B4802F0BDF849F669
:100C100003730493CDF8149004A9304602F0B4F89D
:100C200004230493254B0593069404A9304602F04F
:100C3000ABF8182304934FF00108CDF81480069404
:100C40000227079704A9304602F09EF844F68D4328
:100C50000493CDF8149004A9284602F095F84FF4B7
:100C600098530493CDF814800694079704A9284656
:100C700002F08AF840230493114B0593069404A9CB
:100C8000284602F081F822464146082002F0DEFAAA
:100C9000082002F013FB22463946172002F0D6FA4C
:100CA000172002F00BFB09B0BDE8F08300100240F2
:100CB00000080140000C014000100140000021101C
:100CC0000000311000B583B00A4B5A6942F00102AE
:100CD0005A615B6903F001030193019B00221146F5
:100CE0000F2002F0B3FA0F2002F0E8FA03B05DF82B
:100CF00004FB00BF0010024008B50E480E4B036015
:100D00004FF48273436000238360C36003614361D7
:100D10004FF4007282612022C261036243628362E7
:100D20000A23C36201F0FAF800B908BDFFF728FFF3
:100D3000FBE700BFFC0000200030014008B50F4871
:100D40000F4B03604FF4827343604FF400438360A2
:100D50000023C360036143614FF400728261082283
:100D6000C2610362436283620A23C36201F0D6F860
:100D700000B908BDFFF704FFFBE700BF54010020E6
:100D80000038004010B588B0002304930593069303
:100D900007930368324A934205D00446314A93428E
:100DA00029D008B010BD304B9A6942F480529A6144
:100DB0009A6902F480520092009A9A6942F0040201
:100DC0009A619B6903F004030193019BA0230493A0
:100DD0000223059303230793244C04A9204601F022
:100DE000D3FF4023049300230593069304A92046D0
:100DF00001F0CAFFD5E71C4BDA6942F48042DA61A0
:100E0000DA6902F480420292029A9A6942F0080278
:100E10009A619B6903F008030393039B4FF42043FB
:100E20000493022305930323079304A9104801F0B8
:100E3000ABFF1048104B0360102343600023836016
:100E40008022C260036143618361C36102F0D8F80C
:100E500018B9084BA3645C62A3E7FFF791FEF8E7BB
:100E600000300140003800400010024000080140FE
:100E7000000C0140B80000205800024000B587B0C7
:100E80000023029303930493059300930193154861
:100E90004FF0804202604FF6FF12426083603122C1
:100EA000C2600361836102F027FC90B94FF4805364
:100EB000029302A90B4802F07FFD68B9002300935A
:100EC00001936946074802F0D9FE40B907B05DF8C2
:100ED00004FBFFF755FEE9E7FFF752FEEEE7FFF7E9
:100EE0004FFEF3E7F401002000B58DB0242200216D
:100EF00003A802F097FF0023019302931148124ABE
:100F00000260436083604FF6FF72C26003618361D9
:100F1000012303930593099303A902F045FC50B9FB
:100F200000230193029301A9064802F0A7FE28B905
:100F30000DB05DF804FBFFF723FEF1E7FFF720FE9D
:100F4000F6E700BF3C0200200004004000B587B077
:100F5000002302930393049305930093019319488C
:100F6000194A02604FF6FF12426083604FF4FA6242
:100F7000C2600361836102F0BFFBC8B94FF48053C4
:100F8000029302A90F4802F017FDA0B900230093B5
:100F9000019369460B4802F071FE78B90A4A136959
:100FA00023F001031B041B0C136107B05DF804FB65
:100FB000FFF7E6FDE2E7FFF7E3FDE7E7FFF7E0FD18
:100FC000ECE700BF840200200008004000B585B0B7
:100FD00003681F4A934208D0B3F1804F10D01D4AD6
:100FE000934221D005B05DF804FB1B4B9A6942F493
:100FF00000629A619B6903F400630193019BF1E72E
:1010000003F50433DA6942F00102DA61DB6903F0C7
:1010100001030293029B002203211C2002F016F917
:101020001C2002F04BF9DDE70B4BDA6942F00402B9
:10103000DA61DB6903F004030393039B00220321BD
:101040001E2002F003F91E2002F038F9CAE700BFA3
:10105000002C0140000800400010024000B587B09D
:10106000002302930393049305930268144B9A425E
:1010700002D007B05DF804FB03F50333DA6942F0F0
:101080000202DA61DA6902F002020092009A9A69B9
:1010900042F008029A619B6903F008030193019BE7
:1010A0003023029302A9074801F06EFE064A5368F6
:1010B00023F4406343F0E06343F400635360D8E7F4
:1010C00000040040000C01400000014000B587B062
:1010D000002302930393049305930268114B9A42F1
:1010E00002D007B05DF804FB03F564439A6942F04F
:1010F00008029A619B6903F008030193019B022394
:1011000002930393059302A9074801F03DFE074AA5
:10111000536823F0C00343F0E06343F0400353609F
:10112000DFE700BF002C0140000C0140000001403F
:1011300010B596B00024129413941494159410943E
:10114000119409940A940B940C940D940E940F949A
:101150002022214601A802F065FE2E482E4B036096
:101160004460846043F67F63C360046144618461CA
:1011700002F0C2FA00283BD14FF48053129312A917
:10118000244802F019FC002835D1224802F0E0FA88
:10119000002833D100231093119310A91D4802F0A9
:1011A0006DFD00282DD16023099300230A930B9332
:1011B0000C930D930E930F93082209A9154802F082
:1011C00081FB08BB002301930293039304930593CF
:1011D0000693089301A90F4802F086FDB8B90E4B9B
:1011E0004FF4FA52DA630B48FFF770FF16B010BDE8
:1011F000FFF7C6FCC0E7FFF7C3FCC6E7FFF7C0FC7C
:10120000C8E7FFF7BDFCCEE7FFF7BAFCDAE7FFF768
:10121000B7FCE4E7AC010020002C014008B500F069
:101220000FFD08BD0000000030B59DB0464D686858
:10123000FFF7D0F842A3D3E90023FFF76FFAFFF7D7
:1012400055FBFFF7E9F802460B46404912A802F0A9
:10125000F1FD3F4C6A68214614A802F0EBFD3D4BBE
:101260001A8821460AA802F0E5FD3B4B1A88214660
:1012700002A802F0DFFD0A21012000F07BFC374CC0
:10128000012394E80600364800F05CFC0A210120A6
:1012900000F070FC012394E8060014A800F052FC52
:1012A0000A21442000F066FC2E4D012394E806003C
:1012B000284600F047FC0A21442000F05BFC012393
:1012C00094E8060012A800F03DFC2A21442000F01A
:1012D00051FC012394E80600284600F033FC2A2143
:1012E000442000F047FC012394E8060002A800F027
:1012F00029FC2A21012000F03DFC012394E806008E
:10130000284600F01FFC2A21012000F033FC0123B5
:1013100094E806000AA800F015FC0124009440237C
:101320001A460021184600F02BFC0094202380224E
:101330001946002000F024FC00F078FB1DB030BD01
:101340000AD7A3703DAA6040A40000200C47000803
:101350001447000800000020CC02002008000020F4
:10136000184700082047000810B5094C0421204602
:1013700002F01EFC23684FF400425A625A6A520877
:1013800004490A605B6A5B08034A136010BD00BF32
:101390003C020020D0020020D402002000B587B01B
:1013A0008DF80F0000228DF817201021154801F04C
:1013B000FDFD4FF47A73009301230DF117020DF137
:1013C0000F01114800F0E1FE9DF80F30072B09D105
:1013D000012210210B4801F0E9FD9DF8170007B02C
:1013E0005DF804FBFF238DF816304FF47A730093F9
:1013F00001230DF117020DF11601034800F0C5FE9F
:10140000E6E700BF00080140FC00002030B583B0D3
:101410008DF807008DF80610C3B243F020038DF855
:1014200007300F4C00221021204601F0BFFD0D4D6A
:101430004FF47A7301220DF10701284600F0C9FD2F
:101440004FF47A7301220DF10601284600F0C1FD28
:1014500001221021204601F0A9FD03B030BD00BFDC
:1014600000080140FC00002000B583B050238DF837
:10147000043000221021134801F098FD4FF47A73D4
:10148000012201A9104800F0A4FD104B1B68104A6E
:10149000A2FB0323DB0C1A46013B002AFBD173237A
:1014A0008DF804304FF47A73012201A9064800F048
:1014B00090FD01221021034801F078FD03B05DF892
:1014C00004FB00BF00080140FC00002018000020C1
:1014D000819F5E16F0B583B00C4615468DF8070067
:1014E0000E4E00221021304601F060FD0C4F4FF4EB
:1014F0007A7301220DF10701384600F06AFD4FF4BE
:101500007A732A462146384600F061FF01221021F5
:10151000304601F04BFD03B0F0BD00BF00080140B4
:10152000FC00002030B583B00C4615468DF807004E
:10153000C3B243F020038DF8073000221021114878
:1015400001F034FD4FF47A7301220DF107010E48CA
:1015500000F03FFD0D4B1B680D4AA2FB0323DB0C83
:101560001846013B0028FBD14FF47A732A462146E6
:10157000054800F02EFD01221021024801F016FD61
:1015800003B030BD00080140FC000020180000201E
:10159000819F5E1600B583B0E2238DF804300022EF
:1015A00010210E4801F002FD4FF47A73012201A9C7
:1015B0000B4800F00EFD0B4B1B680B4AA2FB0323EC
:1015C000DB0C1A46013B002AFBD101221021034803
:1015D00001F0ECFC03B05DF804FB00BF0008014023
:1015E000FC00002018000020819F5E1600B583B02B
:1015F000E1238DF80430002210210E4801F0D6FCC2
:101600004FF47A73012201A90B4800F0E2FC0B4B66
:101610001B680B4AA2FB0323DB0C1A46013B002A82
:10162000FBD101221021034801F0C0FC03B05DF89A
:1016300004FB00BF00080140FC000020180000204F
:10164000819F5E1608B50020FFF7A8FE40F0030159
:10165000C9B20020FFF7DAFE012208210A4801F092
:10166000A5FC9623094A12680949A1FB0212D20C73
:1016700002FB03F31A46013B002AFBD1FFF78AFF66
:10168000FFF7B4FF08BD00BF0008014018000020AC
:10169000819F5E1608B5032206491020FFF742FF1E
:1016A00000220821044801F081FCFFF773FFFFF7D7
:1016B0009DFF08BD040000200008014070B582B005
:1016C0000C4615468DF80700184E002208213046BA
:1016D00001F06CFC00221021304601F067FC4FF451
:1016E0007A7301220DF10701114800F072FC114BD1
:1016F0001B68114AA2FB0323DB0C1846013B0028A0
:10170000FBD14FF47A732A462146094800F061FC68
:10171000064C01221021204601F048FC012208213C
:10172000204601F043FC02B070BD00BF000801403C
:10173000FC00002018000020819F5E1610B50446B2
:10174000FFF7A8FF0020FFF729FE00F0FE0141F09F
:1017500002010020FFF75AFE9623144A126814492A
:10176000A1FB0212D20C02FB03F31A46013B002A32
:10177000FBD105222146A020FFF7A0FF012208216E
:101780000C4801F013FC0F23084A12680849A1FB1A
:101790000212D20C02FB03F31A46013B002AFBD1D2
:1017A0000821044801F002FC10BD00BF1800002011
:1017B000819F5E160008014010B50A4C05222146A3
:1017C0006120FFF787FEA27863781B0203EB0243D8
:1017D00022781344044A5360E37893602379D360FA
:1017E00010BD00BFD8020020A400002008B50720CB
:1017F000FFF7D4FD00F06003602B18D010F0400F0D
:1018000029D110F0200F2DD110F0100F29D0102168
:101810000720FFF7FBFDFFF7E9FE0820FFF7BEFDFD
:1018200000F00F00164B9860FFF70CFF19E0402105
:101830000720FFF7EBFDFFF7BFFF20210720FFF791
:10184000E5FD0820FFF7AAFD00F00F000C4B9860A3
:10185000FFF7F8FE05E040210720FFF7D7FDFFF76F
:10186000ABFF08BD20210720FFF7D0FD0820FFF7C0
:1018700095FD00F00F00024B9860FFF7E3FEF0E7E4
:10188000A400002010B5002208212D4801F08EFB95
:1018900041F288332B4A12682B49A1FB0212D20C69
:1018A00002FB03F31A46013B002AFBD10A21002068
:1018B000FFF7ACFD41F28833224A12682249A1FBAE
:1018C0000212D20C02FB03F31A46013B002AFBD1A1
:1018D00001210846FFF79AFD01210220FFF796FD3E
:1018E00001210320FFF792FD5F210420FFF78EFD09
:1018F000FFF7BAFD06211D20FFF788FD01211C20FE
:10190000FFF784FD70210720FFF780FD46210520A9
:10191000FFF77CFD26210620FFF778FD0B4C032204
:1019200021461020FFF7FEFD032221460A20FFF783
:10193000F9FD05211120FFF769FDFFF783FE10BDBA
:101940000008014018000020819F5E16040000205E
:1019500010B50D4C01224FF48071204601F026FB9A
:1019600000224FF48051204601F020FB0A2000F0B5
:10197000F3FE01224FF48051204601F017FB0A20AC
:1019800000F0EAFE10BD00BF000C014010B582B0AF
:101990008DF807000E4C00224FF48071204601F0B4
:1019A00005FB00224FF40071204601F0FFFA4FF0D2
:1019B000FF3301220DF10701064800F00AFB012266
:1019C0004FF48071204601F0F1FA02B010BD00BF63
:1019D000000C01405401002070B504460D46094E2C
:1019E00000224FF48071304601F0E0FA01224FF4FA
:1019F0000071304601F0DAFAAAB22146024800F03E
:101A0000A5FD70BD000C014054010020002303E03F
:101A1000FF21054AD1540133B3F5806F03D200286A
:101A2000F6D10146F5E77047E802002008B5B0207E
:101A3000FFF7ACFF0020FFF7A9FF1020FFF7A6FF7C
:101A40004FF480610148FFF7C7FF08BDE80200209E
:101A500010F0800F0FD13F290DD8012A0CD0CB08F0
:101A600000EBC31001F0070101238B40084A115C11
:101A700021EA030111547047CB0800EBC31001F0B9
:101A8000070101238B40024A115C1943115470472E
:101A9000E80200202DE9F04782B0814602A800E963
:101AA00006001F46A9F12003DBB25E2B40D8244B71
:101AB0001B889DF800603344802B3DDC204B5B8805
:101AC0009DF801A05344402B38DC00251FE01C4B3F
:101AD0001888598829442044B7FA87F25209C9B2B4
:101AE000C0B2FFF7B5FF0134A6420FD908FA04F3DC
:101AF00013F4004FEBD0124B188859882944204426
:101B00003A46C9B2C0B2FFF7A3FFECE70135AA45D8
:101B100008D9A9F1200303FB0A53019A32F8138074
:101B20000024E1E7064B1A8816441E80484600E070
:101B3000002002B0BDE8F0870020FAE70020F8E7B7
:101B4000E002002030B583B0044602A800E9060098
:101B50001D4600E00134207848B12B4602AA12E964
:101B60000600FFF797FF024620788242F2D003B0CA
:101B700030BD0000014B188059807047E002002002
:101B80002DE9F04F83B004460E4691469B469DF8E2
:101B900030A0A2EB0008B8F1000FB8BFC8F10008F0
:101BA0005F1A002FB8BF7F4282420DD901230093F4
:101BB000B3450DD901230193A8EB070552465946B9
:101BC0004846FFF745FF1BE04FF0FF330093EFE778
:101BD0004FF0FF330193EFE7524631462046FFF7BF
:101BE00037FF6B007A42B2EB450F03DAED1B009A28
:101BF0001444E4B2984503DD4544019B1E44F6B20B
:101C00004C45E9D15E45E7D103B0BDE8F08F10B592
:101C100004468120FFF7BAFE2046FFF7B7FE10BD4D
:101C200008B530B1054B01225A71AF20FFF7AEFE67
:101C300008BD024B00225A71AE20F7E7E0020020F7
:101C400008B5FFF785FE642000F086FD0020FFF751
:101C5000E7FF2020FFF79AFE0020FFF797FEB02055
:101C6000FFF794FEC820FFF791FE0020FFF78EFEDD
:101C70001020FFF78BFE4020FFF788FEFF20FFF7C4
:101C8000C6FFA120FFF782FEA620FFF77FFEA82057
:101C9000FFF77CFE3F20FFF779FEA420FFF776FEDA
:101CA000D320FFF773FE0020FFF770FED520FFF76B
:101CB0006DFEF020FFF76AFED920FFF767FE2220B5
:101CC000FFF764FEDA20FFF761FE1220FFF75EFEE9
:101CD000DB20FFF75BFE2020FFF758FE8D20FFF78B
:101CE00055FE1420FFF752FE0120FFF799FF002058
:101CF000FFF78CFEFFF79AFE034B00221A805A80F2
:101D000001221A7108BD00BFE00200207047FEE703
:101D1000FEE7FEE7FEE770477047704708B500F042
:101D200009FD08BD08B5042001F046F908BD000012
:101D300008B5024801F0D6F908BD00BFB800002080
:101D400008B5402001F038F908BD000008B5024888
:101D500001F0DAFB08BD00BFF401002008B502481D
:101D600001F0D2FB08BD00BF8402002082B00E4B00
:101D70009A6942F001029A619A6902F001020092A6
:101D8000009ADA6942F08052DA61DB6903F080532D
:101D90000193019B054A536823F0E06343F000730D
:101DA000536002B0704700BF0010024000000140C5
:101DB0002DE9F04782B00546884617461E4600F0DA
:101DC000C5FC0A9B1B1A03EB060900F0BFFC824608
:101DD0002B4B1B68C3F3CB3309FB03F301932B6835
:101DE0009C6838EA04030CBF4FF0010C4FF0000C64
:101DF000BC4540D0B6F1FF3FF1D000F0A7FCA0EB0E
:101E00000A0048450AD2B9F1000F07D0019A02B181
:101E10004A46019B013B01939146E0E72A685368DB
:101E200023F0E00353606B68B3F5827F0BD0AB6A9D
:101E3000B3F5005F14D0012385F85130002385F8F5
:101E40005030032018E0AB68B3F5004F02D0B3F573
:101E5000806FECD12A68136823F040031360E6E733
:101E60002A68136823F4005313602A68136843F444
:101E700000531360DFE7002002B0BDE8F08700BF29
:101E80001800002010B582B004460B4600920022D4
:101E90008021FFF78DFF08B902B010BD636D43F0DC
:101EA000200363650320F7E710B582B004460B46B4
:101EB0004168B1F5827F10D06168B1F5827F03D1AE
:101EC000A168B1F5806F15D00092002280212046D4
:101ED000FFF76EFFE0B902B010BD8168B1F5004FA9
:101EE00002D0B1F5806FE7D12068016821F0400190
:101EF0000160E1E70092002201212046FFF758FF30
:101F00000028E8D0636D43F0200363650320E2E717
:101F1000636D43F0200363650320DCE7002856D09F
:101F200010B50446436A33B94368B3F5827F05D0E0
:101F30000023C36102E00023036143610023A36225
:101F400094F85130002B3CD0022384F851302268A1
:101F5000136823F040031360636803F48273A2687C
:101F600002F404421343E26802F40062134322695C
:101F700002F002021343626902F001021343A269F4
:101F800002F400721343E26902F038021343226A3A
:101F900002F080021343A26A02F400522168134344
:101FA0000B60638B226803F0040353602268D369DB
:101FB00023F40063D36100206065012384F851306D
:101FC00010BD84F850302046FEF7DCFEBCE701204F
:101FD00070472DE9F04383B01D4690F85030012B37
:101FE00000F0D180044688469146012380F85030A5
:101FF00000F0ACFB074694F85160F6B2012E40F0B9
:10200000BA80B8F1000F00F0B780B9F1000F00F00E
:10201000B380032384F8513000236365C4F8308013
:10202000A4F83490A4F83690A363A387E38763648D
:102030002364A368B3F5004F1ED023681A6812F01A
:10204000400F03D11A6842F040021A60E368B3F50A
:10205000006F1CD0636813B1B9F1010F55D1226B29
:10206000236812781A73236B01332363E38E9BB2C8
:10207000013B9BB2E38648E02268136823F04003EB
:1020800013602268136843F480431360D5E76368E4
:1020900013B1B9F1010F15D1226B23681288DA60F0
:1020A000236B02332363E38E9BB2013B9BB2E38637
:1020B00008E000F04BFBC01BA84202D3B5F1FF3F84
:1020C00015D1A5B1E38E9BB2002B3CD023689A6852
:1020D00012F0020FEDD0226B1288DA60236B02330C
:1020E0002363E38E9BB2013B9BB2E386EAE70123C5
:1020F00084F8513003263FE000F028FBC01BA842C3
:1021000002D3B5F1FF3F19D1C5B1E38E9BB2D3B174
:1021100023689A6812F0020FEED0226B12781A73BD
:10212000236B01332363B4F836C01FFA8CFC0CF127
:10213000FF3C1FFA8CFCA4F836C0E6E7012384F8C4
:102140005130032618E03A4629462046FFF79AFE0A
:1021500008B120236365A36833B901932368DA6863
:1021600001929B680193019B636D2BB9012384F855
:102170005130002600E00226002384F8503030461B
:1021800003B0BDE8F0830226F9E72DE9F04383B000
:102190001F460A9D90F85030012B00F0168104462E
:1021A00088469146012380F8503000F0CFFA064669
:1021B00094F85130DBB26268012B0AD0B2F5827F0D
:1021C00040F0F080A268002A40F0F380042B40F039
:1021D000F280B8F1000F00F0F080B9F1000F00F0CC
:1021E000EE80002F00F0ED8094F85130DBB2042B2C
:1021F00002D0052384F8513000236365C4F8389079
:10220000E787A787C4F83080E786A78623646364DE
:1022100023681A6812F0400F03D11A6842F0400296
:102220001A60E368B3F5006F11D063680BB1012F3A
:102230000BD1226B236812781A73236B013323634B
:10224000E38E9BB2013B9BB2E38601276EE063689D
:102250000BB1012F0BD1226B23681288DA60236B3C
:1022600002332363E38E9BB2013B9BB2E3860127DB
:102270001BE023689A6812F0010F0ED0E28F92B231
:102280005AB1DA68A36B1A80A36B0233A363E38F9E
:102290009BB2013B9BB2E387012700F057FA801BFA
:1022A000A84202D3B5F1FF3F1ED1E38E9BB21BB90A
:1022B000E38F9BB2002B5CD023689A6812F0020F68
:1022C000D7D0E28E92B2002AD3D0002FD1D0226B89
:1022D0001288DA60236B02332363E38E9BB2013BE7
:1022E0009BB2E3860027C4E7012384F85130032022
:1022F00059E023689A6812F0010F0ED0E28F92B273
:102300005AB1DA68A36B1A70A36B0133A363E38F2E
:102310009BB2013B9BB2E387012700F017FA831BB6
:10232000AB4202D3B5F1FF3F1ED1EDB1E38E9BB2BC
:1023300013B9E38F9BB2E3B123689A6812F0020FDE
:10234000D7D0E28E92B2002AD3D0002FD1D0226B08
:1023500012781A73236B01332363E38E9BB2013B24
:102360009BB2E3860027C4E7012384F851300320A1
:1023700019E0324629462046FFF784FD70B9A3686C
:1023800033B901932368DA6801929B680193019B3A
:10239000636DC3B9012384F8513004E020236365E1
:1023A000012000E00220002384F8503003B0BDE893
:1023B000F0830220F7E70220F5E70120F3E7012090
:1023C000F1E70120EFE70120EDE70220EEE72DE93C
:1023D000F04383B0044690F85160F6B2012E40F00D
:1023E000AB80884691461D464368B3F5827F32D064
:1023F00094F85030012B00F0A780012384F850306E
:1024000000F0A4F90746B8F1000F00F09680B9F18A
:10241000000F00F09280042384F85130002363659C
:10242000C4F83880A4F83C90A4F83E902363A386B7
:10243000E38623646364A368B3F5004F18D0236870
:102440001A6812F0400F03D11A6842F040021A6075
:10245000E3680BB343E08368002BC9D1042380F801
:102460005130009513460A46FFF78FFE064667E097
:102470002268136823F0400313602268136823F472
:1024800080431360DBE700F061F9C01BA84202D370
:10249000B5F1FF3F15D1A5B1E38F9BB2002B3CD026
:1024A00023689A6812F0010FEDD0A26B1B7B1370AA
:1024B000A36B0133A363E38F9BB2013B9BB2E38722
:1024C000EAE7012384F85130032636E000F03EF9B4
:1024D000C01BA84202D3B5F1FF3F19D1C5B1E38FAC
:1024E0009BB2D3B123689A6812F0010FEED0DA687C
:1024F000A36B1A80A36B0233A363B4F83EC01FFA28
:102500008CFC0CF1FF3C1FFA8CFCA4F83EC0E6E703
:10251000012384F8513003260FE03A46294620462D
:10252000FFF7C2FC08B120236365636D2BB901235B
:1025300084F85130002600E00226002384F8503051
:10254000304603B0BDE8F0830226F9E738B590F8CD
:102550005030012B5ED00446012380F8503090F8B3
:102560005150EDB29D424FD100294ED0002A4CD09F
:10257000032380F851300023436501638286C286BD
:102580008363436403648387C3878368B3F5004F21
:102590002AD0A36C204ADA62A36C204A9A62A36C08
:1025A0001F4A1A63A36C00225A632268E38E9BB20F
:1025B0000C32216BA06C00F059FD0146F8B923687C
:1025C0001A6812F0400F03D11A6842F040021A60F4
:1025D0002268536843F0200353602268536843F035
:1025E000020353600D4610E00268136823F04003B5
:1025F00013600268136843F480431360C9E7636D96
:1026000043F01003636500E00225002384F8503096
:10261000284638BD0225FBE7272600085526000876
:1026200033260008704708B5406AFFF7FBFF08BD76
:10263000704708B5406A0268536823F0030353608B
:10264000436D43F010034365012380F85130FFF7D9
:10265000EFFF08BD30B583B00546446A00F076F858
:102660002B681B6813F0200F23D1024621684B68AA
:1026700023F020034B6021684B6823F002034B607A
:1026800064212046FFF7FEFB18B1636D43F0200381
:102690006365A36833B901932368DA6801929B6884
:1026A0000193019B0023E386012384F85130636D7D
:1026B00023B92046FEF710FA03B030BD2046FFF7DD
:1026C000B7FFF9E710B504460E4B18784FF47A734C
:1026D000B3FBF0F30C4A1068B0FBF3F000F0FCFD24
:1026E00068B90F2C01D901200AE0002221464FF0E1
:1026F000FF3000F0ABFD054B1C60002000E0012026
:1027000010BD00BF100000201800002014000020A1
:1027100008B5074A136843F010031360032000F064
:1027200083FD0020FFF7CEFFFFF720FB002008BD50
:1027300000200240034A1168034B1B780B441360CE
:10274000704700BFE806002010000020014B186809
:10275000704700BFE806002038B50446FFF7F6FFD3
:102760000546B4F1FF3F02D0044B1B781C44FFF731
:10277000EDFF401BA042FAD338BD00BF100000207F
:1027800082B0084B1B68084AA2FB03235B0A00FBCC
:1027900003F3019300BF019B5A1E0192002BF9D154
:1027A00002B0704718000020D34D6210002800F0DE
:1027B000F18170B582B00446036813F0010F2CD08C
:1027C000994B5B6803F00C03042B1DD0964B5B68A0
:1027D00003F00C03082B12D06368B3F5803F41D09F
:1027E000002B55D103F1804303F504331A6822F41A
:1027F00080321A601A6822F480221A6037E08A4B0D
:102800005B6813F4803FE7D0874B1B6813F4003FED
:1028100003D06368002B00F0BF81236813F0020F20
:1028200075D0814B5B6813F00C0F5FD07E4B5B68FB
:1028300003F00C03082B54D02369002B00F08A808E
:102840007A4B01221A60FFF781FF0546764B1B6821
:1028500013F0020F75D1FFF779FF401B0228F5D95D
:1028600003209EE1704A136843F480331360636869
:1028700043B3FFF76BFF05466B4B1B6813F4003F38
:10288000CBD1FFF763FF401B6428F5D9032088E113
:10289000B3F5A02F09D0644B1A6822F480321A6075
:1028A0001A6822F480221A60E1E703F18043A3F55D
:1028B0003C331A6842F480221A601A6842F480326B
:1028C0001A60D4E7FFF742FF0546574B1B6813F425
:1028D000003FA2D0FFF73AFF401B6428F5D9032040
:1028E0005FE1514B5B6813F4803FA5D14E4B1B68F1
:1028F00013F0020F03D02369012B40F04F814A4AA5
:10290000136823F0F803616943EAC1031360236885
:1029100013F0080F33D0A369002B5CD0434B012286
:10292000C3F88024FFF712FF05463F4B5B6A13F0A4
:10293000020F21D1FFF70AFF401B0228F5D903201F
:102940002FE1394A136823F0F803616943EAC103B0
:102950001360DCE7354B00221A60FFF7F7FE0546EF
:10296000314B1B6813F0020FD1D0FFF7EFFE401B75
:102970000228F5D9032014E10120FFF701FF2368A5
:1029800013F0040F00F09680274BDB6913F0805F93
:1029900034D1254BDA6942F08052DA61DB6903F009
:1029A00080530193019B0125214B1B6813F4807F09
:1029B00026D0E368012B3DD0002B53D103F1804397
:1029C00003F504331A6A22F001021A621A6A22F02D
:1029D00004021A6233E0154B0022C3F88024FFF78B
:1029E000B5FE0546104B5B6A13F0020FC7D0FFF728
:1029F000ADFE401B0228F5D90320D2E00025D3E725
:102A00000B4A136843F480731360FFF79FFE06467A
:102A1000074B1B6813F4807FCBD1FFF797FE801B19
:102A20006428F5D90320BCE00010024000004242B7
:102A3000007000405F4A136A43F001031362E368C9
:102A400033B3FFF783FE06465A4B1B6A13F0020F9F
:102A50002FD1FFF77BFE801B41F288339842F3D9D8
:102A600003209EE0052B09D0524B1A6A22F0010286
:102A70001A621A6A22F004021A62E0E74D4B1A6ADF
:102A800042F004021A621A6A42F001021A62D6E7A0
:102A9000FFF75CFE0646474B1B6A13F0020F08D097
:102AA000FFF754FE801B41F288339842F3D903208C
:102AB00077E0E5B9E369002B72D03E4A526802F034
:102AC0000C02082A56D0022B17D03B4B00221A6664
:102AD000FFF73CFE0446374B1B6813F0007F47D0DE
:102AE000FFF734FE001B0228F5D9032059E0314AD4
:102AF000D36923F08053D361DCE72F4B00221A66A1
:102B0000FFF724FE05462B4B1B6813F0007F06D011
:102B1000FFF71CFE401B0228F5D9032041E0236A81
:102B2000B3F5803F1AD023494B6823F47413226A0B
:102B3000606A024313434B601F4B01221A66FFF782
:102B400005FE04461B4B1B6813F0007F0ED1FFF7F8
:102B5000FDFD001B0228F5D9032022E0154A536829
:102B600023F40033A1680B435360DCE7002018E036
:102B7000002016E0012B16D00E4B5B6803F4803169
:102B8000226A914211D103F47013626A93420ED10A
:102B9000002006E001207047012002E0012000E053
:102BA000002002B070BD0120FBE70120F9E7012001
:102BB000F7E700BF0010024000004242114B5A6884
:102BC00002F00C03042B18D0082B18D1C2F3834356
:102BD0000D49C85C12F4803F0BD00A4B5B68C3F30D
:102BE00040430A4AD35C0A4A02FB00F0B0FBF3F010
:102BF0007047084B03FB00F07047054870470648D4
:102C0000704700BF0010024084540008945400082C
:102C10000024F40000093D0000127A00002800F0B2
:102C2000A08070B50D460446524B1B6803F00703A5
:102C30008B420BD24F4A136823F007030B431360F8
:102C4000136803F007038B4240F08D80236813F074
:102C5000020F17D013F0040F04D0474A536843F40F
:102C6000E0635360236813F0080F04D0424A5368AE
:102C700043F460535360404A536823F0F003A16863
:102C80000B435360236813F0010F31D06368012BAD
:102C900020D0022B25D0384A126812F0020F64D0DF
:102CA00035494A6822F0030213434B60FFF74EFD9B
:102CB0000646314B5B6803F00C036268B3EB820F8E
:102CC00016D0FFF743FD801B41F288339842F0D9BC
:102CD000032045E0284A126812F4003FE0D10120A9
:102CE0003EE0254A126812F0007FD9D1012037E07A
:102CF000204B1B6803F00703AB420AD91D4A136837
:102D000023F007032B431360136803F00703AB4260
:102D10002DD1236813F0040F06D0174A536823F40B
:102D2000E063E1680B435360236813F0080F07D09A
:102D3000114A536823F46053216943EAC103536085
:102D4000FFF73CFF0C4B5B68C3F303130B4AD35CE8
:102D5000D8400B4B18600B4B1868FFF7B3FC0020F2
:102D600070BD012070470120FAE70120F8E701203B
:102D7000F6E700BF0020024000100240985400080F
:102D8000180000201400002070B582B00024A44672
:102D9000A6E0804DAA4210D007D97F4DAA420CD0A0
:102DA00005F58035AA4208D013E0A5F58015AA42A2
:102DB00003D005F57025AA4207D18A68002A58D0A9
:102DC000012A51D04361082403E0A5F58015AA42E9
:102DD000F3D0BEF1FF0F4ED80646BEF1FF0F4CD820
:102DE0004FEA8C0233680F25954023EA050304FA65
:102DF00002F2134333604B6813F0805F6ED0674B71
:102E00009A6942F001029A619B6903F00103019300
:102E1000019B4FEA9C02951C614B53F825600CF016
:102E200003039D000F23AB4026EA03065D4B984247
:102E300029D003F58063984200F08E8003F580630B
:102E4000984200F08B8003F58063984219D00423E8
:102E50001AE0CC68BDE7CC680434BAE7CC68083423
:102E6000B7E7CC680C34B4E703610824B1E7002469
:102E7000AFE70424ADE7061DAFE7ACF1080292000E
:102E8000B0E7032300E00023AB4033430232444D5C
:102E900045F822304B6813F4801F61D0424A936892
:102EA00043EA0E0393604B6813F4001F5ED03E4A62
:102EB000D36843EA0E03D3604B6813F4003F5BD042
:102EC000394A536843EA0E0353604B6813F4803F5A
:102ED00058D0354A136843EA0E0313600CF1010C15
:102EE0000A6832FA0CF353D0012303FA0CF302EA16
:102EF000030E33EA0202F1D14A68122A3FF649AFC3
:102F0000122A3FF666AF01A555F822F0BB2D000846
:102F1000532E00085D2E00086F2E0008D32D0008E8
:102F2000D32D0008D32D0008D32D0008D32D000881
:102F3000D32D0008D32D0008D32D0008D32D000871
:102F4000D32D0008D32D0008D32D0008D32D000861
:102F5000572E0008632E0008012395E7022393E70C
:102F6000114A936823EA0E0393609CE70E4AD368E4
:102F700023EA0E03D3609FE70B4A536823EA0E034C
:102F80005360A2E7084A136823EA0E031360A5E71B
:102F900002B070BD0000221000003110001002408D
:102FA0000000014000080140000401400AB1016135
:102FB000704709040161704708B5054B5B6903421E
:102FC00000D108BD024B5861FDF74AFDF9E700BF8B
:102FD0000004014030B40124056CAC40C56B6C604A
:102FE000046863604368102B05D003689960036828
:102FF000DA6030BC704703689A600368D960F8E70C
:1030000060B310B402460168154B0B441548A0FB91
:1030100003031B099B001364134BD363022382F841
:103020002130086820F47F5020F030005368946805
:103030002343D46823431469234354692343946985
:103040002343D469234303430B600020906301238F
:1030500082F8213082F8200010BC704701207047B0
:10306000F8FFFDBFCDCCCCCC0000024038B5044603
:1030700090F82000012832D0012084F8200094F834
:103080002100C0B2012804D0002384F8203002209F
:1030900038BD022084F821000020A063256828683C
:1030A00020F0010028602046FFF794FFE36A5BB13F
:1030B0002268136843F00E0313602268136843F01C
:1030C000010313600020E3E72268136823F0040380
:1030D00013602268136843F00A031360EDE70220CF
:1030E000D6E7000038B5C36B1A6804682568016C20
:1030F00004238B40134235D015F0040F32D02368DF
:1031000013F0200F03D1236823F004032360036826
:10311000434A934214D01432934218D0143293424B
:1031200017D01432934217D01432934217D014326E
:10313000934202D04FF0806203E04FF4800200E03F
:103140000422384B5A60C36A03B1984738BD402205
:10315000F7E74FF48062F4E74FF48042F1E74FF471
:103160008022EEE702238B4013423CD015F0020F81
:1031700039D0236813F0200F06D1236823F00A0307
:103180002360012380F821300368254A934214D03C
:10319000143293421CD0143293421BD01432934207
:1031A0001BD0143293421BD01432934202D04FF002
:1031B000007203E04FF4001200E00222194B5A6043
:1031C000002380F82030836A002BBFD09847BDE7EA
:1031D0002022F3E74FF40072F0E74FF40052EDE7DE
:1031E0004FF40032EAE7082303FA01F11142ADD0AF
:1031F00015F0080FAAD0236823F00E032360026C99
:10320000C16B012303FA02F24A60836380F8213024
:10321000002380F82030036B002B97D0984795E768
:103220000800024000000240074AD36823F4E0632C
:103230001B041B0C000200F4E060034343F0BF6377
:1032400043F40033D360704700ED00E000B5194B44
:10325000DB68C3F30223C3F1070CBCF1040F28BFE2
:103260004FF0040C03F1040EBEF1060F18D9033B16
:103270004FF0FF3E0EFA0CFC21EA0C0199400EFAC9
:1032800003F322EA0303194300280BDB0901C9B247
:1032900000F1604000F5614080F800135DF804FB28
:1032A0000023E5E700F00F000901C9B2024B1954F1
:1032B000F4E700BF00ED00E014ED00E0002807DBBC
:1032C00000F01F02400901239340024A42F82030D7
:1032D000704700BF00E100E00138B0F1807F0BD201
:1032E0004FF0E0235861054AF02182F823100020B6
:1032F000986107221A6170470120704700ED00E0D5
:1033000070B4036A026A22F00102026246688269AE
:1033100022F073020C6844EA020523F002028B6873
:1033200013430D4CA04209D00B4CA0420DD0466077
:1033300085614A684263036270BC704723F00803EA
:10334000CA68134323F00403EEE726F440764A6983
:1033500032438E691643EAE7002C014030B4036A19
:10336000026A22F4807202624568C26922F0730226
:103370000C68224323F400738C6843EA04230F4C47
:10338000A04209D00D4CA0420ED04560C2614A68EF
:10339000C263036230BC704723F40063CC6843EA25
:1033A000042323F48063EDE725F440554C6945EA96
:1033B00004158C6945EA0415E7E700BF002C0140BD
:1033C00030B4036A026A22F4805202624468C2691D
:1033D00022F4E6420D6842EA052223F400538D6888
:1033E00043EA0533074DA84206D04460C2614A68EB
:1033F0000264036230BC704724F480444D6944EA9F
:103400008514F2E7002C014010B4036A046A24F02A
:1034100001040462846924F0F00C4CEA021223F0E7
:103420000A030B438261036210BC704710B4036A45
:10343000046A24F010040462846924F4704C4CEA99
:10344000023223F0A00343EA01138261036210BC3D
:103450007047836823F070030B4343F007038360D6
:103460007047000090F83D30DBB2012B27D10223DA
:1034700080F83D300268D36843F00103D3600368ED
:10348000114A934210D0B3F1804F0DD0A2F594327F
:10349000934209D002F58062934205D01A6842F047
:1034A00001021A60002070479A6802F00702062A9B
:1034B00007D01A6842F001021A600020704701200C
:1034C00070470020704700BF002C01400268D3689D
:1034D00023F00103D3600368196A41F2111211420B
:1034E00008D1196A40F24442114203D11A6822F00D
:1034F00001021A60012380F83D30002070477047B8
:10350000704770477047704710B5044603681A69E2
:1035100012F0020F11D0DA6812F0020F0DD06FF026
:1035200002021A610123037703689B6913F0030FFA
:1035300070D0FFF7E6FF0023237723681A6912F0A3
:10354000040F12D0DA6812F0040F0ED06FF00402EC
:103550001A610223237723689B6913F4407F5FD0AD
:103560002046FFF7CEFF0023237723681A6912F065
:10357000080F12D0DA6812F0080F0ED06FF00802B0
:103580001A61042323772368DB6913F0030F4ED0FD
:103590002046FFF7B6FF0023237723681A6912F04D
:1035A000100F12D0DA6812F0100F0ED06FF0100268
:1035B0001A61082323772368DB6913F4407F3DD029
:1035C0002046FFF79EFF0023237723681A6912F035
:1035D000010F03D0DA6812F0010F36D123681A699F
:1035E00012F0800F03D0DA6812F0800F34D1236814
:1035F0001A6912F0400F03D0DA6812F0400F32D18E
:1036000023681A6912F0200F03D0DA6812F0200F35
:1036100030D110BDFFF774FF2046FFF773FF8AE734
:103620002046FFF76DFF2046FFF76CFF9BE7204623
:10363000FFF766FF2046FFF765FFACE72046FFF780
:103640005FFF2046FFF75EFFBDE76FF001021A61E2
:103650002046FDF753FAC1E76FF080021A61204659
:1036600000F06CFBC3E76FF040021A612046FFF7E1
:103670004AFFC5E76FF020021A61204600F05DFBAB
:10368000C7E7000003681B4A90420AD0B0F1804FA0
:1036900007D0A2F59432904203D002F580629042A6
:1036A00003D123F070034A681343124A90420AD0B0
:1036B000B0F1804F07D0A2F59432904203D002F5CA
:1036C0008062904203D123F44073CA68134323F00D
:1036D00080034A69134303608B68C3620B6883628B
:1036E000044B984202D00123436170470B69036386
:1036F000F9E700BF002C014040B310B5044690F834
:103700003D30F3B1022384F83D30214651F8040BDB
:10371000FFF7B8FF012384F8463084F83E3084F880
:103720003F3084F8403084F8413084F8423084F8E7
:10373000433084F8443084F8453084F83D3000202C
:1037400010BD80F83C30FDF741FCDBE701207047FD
:1037500040B310B5044690F83D30F3B1022384F82D
:103760003D30214651F8040BFFF78CFF012384F80C
:10377000463084F83E3084F83F3084F8403084F896
:10378000413084F8423084F8433084F8443084F87F
:10379000453084F83D30002010BD80F83C30FFF704
:1037A000AEFEDBE701207047002857D070B50D460C
:1037B000044690F83D30002B4BD0022384F83D3076
:1037C0002268936823F4804323F007039360214623
:1037D00051F8040BFFF756FF21688A688B690E6A5F
:1037E0002868104323F4407C2CF0030CAA68AB69D2
:1037F00042EA032343EA0C0323F47C4323F0FC0353
:10380000EA69D5F80CC04CEA022C4CEA030C2A6A8F
:1038100013032A6943EA021343EA0C0326F0220643
:103820006A686D6942EA05123243886021688B61DB
:1038300023681A62012384F8463084F83E3084F805
:103840003F3084F8423084F8433084F83D30002023
:1038500070BD80F83C30FDF701FCAEE701207047F9
:1038600030B4036A026A22F010020262446882697C
:1038700022F4E6420D6842EA052223F020038D6817
:1038800043EA05130E4DA84209D00D4DA8420ED0B3
:10389000446082614A688263036230BC704723F0EF
:1038A0008003CD6843EA051323F04003EDE724F4D9
:1038B00040644D6944EA85048D6944EA8504E7E77C
:1038C000002C014038B590F83C30012B66D00446FE
:1038D0000D46012380F83C300C2A5AD8DFE802F06C
:1038E000075959591B5959593059595944000068B9
:1038F000FFF706FD2268936943F00803936122688D
:10390000936923F0040393612268936929690B4347
:10391000936100203EE00068FFF7A2FF22689369F0
:1039200043F4006393612268936923F48063936195
:1039300022689369296943EA01239361002029E001
:103940000068FFF70BFD2268D36943F00803D361D9
:103950002268D36923F00403D3612268D3692969FB
:103960000B43D361002015E00068FFF729FD2268B2
:10397000D36943F40063D3612268D36923F480637D
:10398000D3612268D369296943EA0123D361002006
:1039900000E00120002384F83C3038BD0220FCE721
:1039A00010B4846824F47F4C42EA03220A4342EABA
:1039B0000C02826010BC704790F83C30012B78D02C
:1039C00010B50446012380F83C30022380F83D30D6
:1039D0000268936823F47F4323F0770393600B68B6
:1039E000602B4CD029D8402B54D00CD9502B22D14D
:1039F000CA6849680068FFF707FD50212068FFF793
:103A000028FD002005E0202B0DD009D9302B0AD04D
:103A10000120012384F83D30002384F83C3010BDA0
:103A20000BB1102B05D119462068FFF712FD0020BD
:103A3000EFE70120EDE70120EBE7B3F5805F34D03D
:103A4000B3F5005F0CD1CB684A6889680068FFF75E
:103A5000A7FF2268936843F4804393600020D8E76F
:103A6000702B24D1CB684A6889680068FFF798FFFB
:103A70002268936843F0770393600020C9E7CA681F
:103A800049680068FFF7D2FC60212068FFF7E1FC7D
:103A90000020BEE7CA6849680068FFF7B5FC40210E
:103AA0002068FFF7D6FC0020B3E70020B1E7012033
:103AB000AFE70220704701F01F01012303FA01FC68
:103AC000036A23EA0C030362036A02FA01F10B435F
:103AD0000362704710B50446084651BB94F83E3067
:103AE000DBB2013B18BF0123002B5BD1002839D189
:103AF000022384F83E30012201462068FFF7DBFFF5
:103B000023682A4A93423DD02368284A93423ED0F4
:103B1000B3F1804F3BD0A2F59432934237D002F5F7
:103B20008062934233D01A6842F001021A6000208A
:103B300039E0042908D008290DD094F84130DBB2CF
:103B4000013B18BF0123CFE794F83F30DBB2013BC4
:103B500018BF0123C8E794F84030DBB2013B18BF1F
:103B60000123C1E7042805D0082807D0022384F8E0
:103B70004130C0E7022384F83F30BCE7022384F8D9
:103B80004030B8E75A6C42F400425A64BCE79A6885
:103B900002F00702062A07D01A6842F001021A60F2
:103BA000002000E0012010BD0020FCE7002C0140B7
:103BB00038B5044690F83E00C0B294F83F3094F80F
:103BC0004220D2B294F843C00D46B1B9012849D180
:103BD000012A48D1022384F83E3084F842307DB374
:103BE000042D39D0012200212068FFF764FF012253
:103BF00004212068FFF75FFF27E0DBB25FFA8CFC4F
:103C0000042912D0012833D1012B2CD1012A31D122
:103C1000BCF1010F30D1022384F83E3084F83F30EC
:103C200084F8423084F84330D9E7012B1CD1BCF131
:103C3000010F1BD1022384F83F3084F84330CEE7D4
:103C4000012200212068FFF736FF2268136843F045
:103C500001031360002006E0012204212068FFF721
:103C60002AFFF2E7012038BD0120FCE71846FAE7F9
:103C70000120F8E71846F6E71046F4E790F83C30E4
:103C8000012B2CD010B4012380F83C30022380F8A3
:103C90003D3003685A689C6822F0700C0A6842EA5A
:103CA0000C025A6003680F4A93420AD0B3F1804F66
:103CB00007D0A2F59432934203D002F5806293427A
:103CC00004D124F080044A6814439C60012380F8E6
:103CD0003D30002380F83C30184610BC704702206D
:103CE000704700BF002C014090F83C30012B22D0DF
:103CF000012380F83C30CB6823F440738A68134377
:103D000023F480634A68134323F400630A6813436F
:103D100023F480530A69134323F400534A6913437D
:103D200023F48043CA69134302685364002380F874
:103D30003C30184670470220704770477047704704
:103D4000FFF7FDFF0B480C490C4A002302E0D45852
:103D5000C4500433C4188C42F9D3094A094C0023D7
:103D600001E013600432A242FBD300F00FF8FCF72D
:103D700037FE70470000002080000020E454000857
:103D80008000002000070020FEE7000070B500263C
:103D90000C4D0D4C641BA410A64209D100F0AAFCE6
:103DA00000260A4D0A4C641BA410A64205D170BD22
:103DB00055F8043B98470136EEE755F8043B984721
:103DC0000136F2E7DC540008DC540008DC5400083B
:103DD000E05400080A44914200F1FF3300D17047DB
:103DE00010B511F8014B914203F8014FF9D110BD04
:103DF000884210B501EB020402D98442234607D859
:103E0000431EA14208D011F8012B03F8012FF8E757
:103E1000014602448A4200D110BD13F8014D02F858
:103E2000014DF7E703460244934200D1704703F87F
:103E3000011BF9E70EB46FF0004100B59CB01DAB5B
:103E400002900690079104910848094953F8042B01
:103E50000591006802A9019300F068F80022029B16
:103E60001A701CB05DF804EB03B070471C00002012
:103E70000802FFFF2DE9F0478E6882469E420C46FD
:103E800090461F4638D88A8912F4906F32D0256840
:103E900009690133A5EB010965694B4405EB45054B
:103EA00005EBD5756D109D4238BF1D46530531D5C4
:103EB000294600F047FB064650B90C234FF0FF306F
:103EC000CAF80030A38943F04003A381BDE8F0871E
:103ED0004A462169FFF77EFFA38923F4906343F0EC
:103EE0008003A38126614E4426603E466561A5EBB2
:103EF0000905A560BE4200D93E46324641462068CB
:103F0000FFF776FFA36800209B1BA3602368334460
:103F10002360DBE72A4600F089FB06460028E1D152
:103F20005046216900F0A6FAC7E700002DE9F04FDE
:103F300098468B8907461B060D4614469DB00ED544
:103F40000B6963B9402100F0FDFA2860286120B9AF
:103F50000C233B604FF0FF30D1E040236B61002326
:103F6000099320238DF8293030234FF00109CDF833
:103F70000C80DFF8A4818DF82A3023469A4613F886
:103F8000012B0AB1252AF9D1BAEB040B0BD05B4601
:103F9000224629463846FFF76DFF013000F0AA801F
:103FA000099A5A4409929AF80030002B00F0A28036
:103FB00000234FF0FF32CDE905230AF1010A0493F3
:103FC00007938DF853301A935446052214F8011BB9
:103FD000514800F041FA049AD8B9D00644BF2023D2
:103FE0008DF85330110744BF2B238DF853309AF8C6
:103FF00000302A2B15D0544600204FF00A0C079AA7
:10400000214611F8013B303B092B4ED9B0B1079244
:1040100014E0A0EB080309FA03F31343A246049348
:10402000D2E7039B191D1B680391002BBBBF5B42AA
:1040300042F0020207930793B8BF049223782E2B15
:104040000CD163782A2B35D1039B02341A1D1B68CF
:104050000392002BB8BF4FF0FF330593DFF8BCA0ED
:1040600003225046217800F0F7F940B14023A0EB3D
:104070000A0003FA00F0049B01340343049314F88C
:10408000011B062226488DF8281000F0E5F90028CB
:1040900038D0244B1BBB039B073323F007030833A3
:1040A0000393099B3344099367E70C4601200CFBFB
:1040B0000232A5E700234FF00A0C1946013405939C
:1040C000204610F8012B303A092A03D9002BC5D01D
:1040D0000591C3E7044601230CFB0121F0E703AB84
:1040E00000932A463846104B04A9AFF30080421CC7
:1040F0000646D6D1AB895B063FF52CAF09981DB0BB
:10410000BDE8F08F03AB00932A463846064B04A95E
:1041100000F07CF8EBE700BFA8540008AE5400089C
:10412000B254000800000000753E00082DE9F04779
:10413000164699468A680B6907469342B8BF1346EC
:10414000336091F843200C46DDF820800AB101333A
:1041500033602368990642BF3368023333602568B1
:1041600015F0060506D104F1190AE36832689B1AB6
:10417000AB4228DC94F84320131E226818BF0123A9
:1041800092062DD44946384604F14302C047013017
:1041900020D02368E56803F00603042B18BF002530
:1041A00032684FF00006A36808BFAD1A226908BF45
:1041B00025EAE5759342C4BF9B1AED181A34B5423F
:1041C0001AD1002008E00123524649463846C0472C
:1041D000013003D14FF0FF30BDE8F0870135C4E76F
:1041E0003020E11881F843005A1C94F8451022440D
:1041F000023382F84310C5E7012322464946384678
:10420000C0470130E6D00136D9E700002DE9FF476D
:104210000F7E9146782F80460C469A460C9D01F100
:10422000430207D8622F0AD8002F00F0D980582FF8
:1042300000F0A48004F1420584F842703AE0A7F14E
:104240006303152BF6D801A151F823F0A54200080D
:10425000B9420008354200083542000835420008DE
:1042600035420008B94200083542000835420008CE
:104270003542000835420008C7430008E9420008FB
:10428000A94300083542000835420008E943000808
:1042900035420008E942000835420008354200086E
:1042A000B14300082B681A1D1B682A6004F14205FF
:1042B00084F842300123A4E020682968060601F151
:1042C00004030AD50E682B60002E03DA2D237642F4
:1042D00084F843300A235E4819E00E6810F0400F5E
:1042E0002B6018BF36B2EFE72B682068191D2960D4
:1042F000010601D51E6802E04606FBD51E886F2F19
:104300000CBF08230A235248002184F84310656833
:10431000002DA8BF2168A560A4BF21F00401216081
:104320000EB9002D4DD01546B6FBF3F103FB116716
:10433000C75D05F8017D3746BB420E46F4D9082B10
:104340000BD12368DE0708D5236961689942DEBF77
:10435000302305F8013C05F1FF35521B22614B4625
:1043600021464046CDF800A003AAFFF7DFFE01304A
:104370004CD14FF0FF3004B0BDE8F087344881F8ED
:1043800045702968236851F8046B29601D0614D50F
:10439000DF0744BF43F0200323601EB9236823F0E6
:1043A000200323601023AFE7236843F0200323603A
:1043B0007823284884F84530E3E7590648BFB6B269
:1043C000E6E71546BBE72B682668181D616928607B
:1043D00035061B6801D5196002E07006FBD519800F
:1043E000002315462361BAE72B6800211A1D2A60B5
:1043F0001D686268284600F02FF808B1401B606015
:1044000063682361002384F84330A8E72A464946BD
:1044100040462369D0470130ABD023689B0713D4B3
:10442000E068039B9842B8BF1846A4E701233246D0
:1044300049464046D04701309BD00135E368039997
:104440005B1AAB42F2DCEBE7002504F11906F5E755
:10445000B9540008CA540008034610B5C9B2024452
:104460009342184601D1002003E0047801338C42C6
:10447000F6D110BD38B50546002940D051F8043CAE
:104480000C1F002BB8BFE41800F010F91C4A136889
:1044900033B9636014602846BDE8384000F00CB9B9
:1044A000A34208D9206821188B4201BF19685B68B4
:1044B00009182160EDE71A465B680BB1A342FAD9EF
:1044C00011685018A0420BD1206801445018834253
:1044D0001160E0D118685B68014411605360DAE74D
:1044E00002D90C232B60D6E7206821188B4201BF2C
:1044F00019685B680918216063605460CBE738BDB8
:10450000EC06002070B50E4E0C463168054611B918
:1045100000F0BCF830602146284600F0B7F8431C94
:104520000AD0C41C24F00304A04207D0211A284654
:1045300000F0ACF8013001D14FF0FF34204670BDDF
:10454000F00600202DE9F041CD1C25F003050835CB
:104550000C2D38BF0C25002D074601DBA94205D9DB
:104560000C2300263B603046BDE8F0812E4E00F063
:104570009DF833681C4634BB29463846FFF7C2FF16
:10458000431C04464DD134682646002E40D1236892
:104590003146384604EB030800F078F880453AD1FC
:1045A000216803356D1A25F0030508350C2D38BF39
:1045B0000C2538462946FFF7A5FF01302BD023688C
:1045C0002B4423600EE02268521B1ED40B2A16D9FE
:1045D0006119A342256018BF5960636808BF316044
:1045E00062514B60384604F10B0600F065F826F086
:1045F0000706231DF21AB6D09B1BA350B3E76268CF
:10460000A3420CBF32605A60ECE723466468B2E70D
:1046100034467668B9E70C2338463B6000F04CF826
:10462000A1E72560DEE700BFEC0600202DE9F041A0
:10463000804614460E4621B91146BDE8F041FFF709
:1046400081BF2AB9FFF716FF25462846BDE8F0814D
:1046500000F038F88442074602D8B4EB500F12D865
:1046600021464046FFF76EFF05460028EDD0BC42CC
:104670002246314628BF3A46FFF7ACFB314640465A
:10468000FFF7F8FEE1E73546DFE7000038B5002325
:10469000054D044608462B6000F01EF8431C02D16D
:1046A0002B6803B1236038BDF4060020014800F0F8
:1046B00011B800BFF8060020014800F00CB800BF98
:1046C000F806002051F8043C181F002BBCBF0B5803
:1046D000C018704770477047044A05491368002B9B
:1046E00008BF0B461844106018467047FC060020AF
:1046F00000070020F8B500BFF8BC08BC9E46704714
:0C470000F8B500BFF8BC08BC9E4670472E
:10470C0025312E3366000000256400002020202077
:10471C00202020202020202020000000000000006D
:10472C00000000000000000000000000000000007D
:10473C00000000000000000000000000000000006D
:10474C000000000C000C000C000C000C000C000C09
:10475C00000C000C000C000C0000000C000C000005
:10476C00000000000000001B001B001B001B001BB6
:10477C00000000000000000000000000000000002D
:10478C000000000000000000000080198019801952
:10479C008019C07FC07F80190033C07FC07F003379
:1047AC000033003300330000000000000000001E46
:1047BC00003F807580650074003C001E000780057A
:1047CC00806580658075003F001E000400040000B9
:1047DC000000007000D840D8C0D880D90073000603
:1047EC00000C801BC036C066C046C00680030000AB
:1047FC00000000000000001E003F003300330033B7
:10480C00001E000CC03CC066806380618063C03EAB
:10481C00801C0000000000000000000C000C000CCC
:10482C00000C000C00000000000000000000000064
:10483C0000000000000000000000000080000001EB
:10484C000003000600060004000C000C000C000C19
:10485C00000C000C000400060006000300018000A0
:10486C00002000100018000C000C000400060006CC
:10487C0000060006000600060004000C000C0018E0
:10488C00001000200000000C002D003F001E003323
:10489C00000000000000000000000000000000000C
:1048AC000000000000000000000000000000000CF0
:1048BC00000C000C000CC0FFC0FF000C000C000C26
:1048CC00000C0000000000000000000000000000D0
:1048DC0000000000000000000000000000000000CC
:1048EC00000000000000000C000C00040004000894
:1048FC0000000000000000000000000000000000AC
:10490C000000001E001E000000000000000000005F
:10491C00000000000000000000000000000000008B
:10492C000000000000000000000000000000000C6F
:10493C00000C000000000000000000030003000356
:10494C000006000600060006000C000C000C000C13
:10495C000018001800180000000000000000001EE5
:10496C00003F0033806180618061806D806D80616B
:10497C00806180610033003F001E000000000000D9
:10498C0000000006000E001E003600260006000681
:10499C0000060006000600060006000600060000E1
:1049AC00000000000000001E003F807380618061E9
:1049BC00800100030006000C001800300060807FAE
:1049CC00807F0000000000000000001C003E00631F
:1049DC0000630003000E000E000380018001806163
:1049EC008073003F001E0000000000000000000665
:1049FC00000E000E001E001E00160036003600666B
:104A0C00807F807F0006000600060000000000008A
:104A1C000000007F007F006000600060006E007F7F
:104A2C0080638001800180618073003F001E000064
:104A3C00000000000000001E003F80338061006019
:104A4C00006E007F80738061806180618033003FE5
:104A5C00001E0000000000000000807F807F8001AD
:104A6C000003000300060006000C000C000C0008FC
:104A7C000018001800180000000000000000001EC4
:104A8C00003F8063806180610021001E003F8061D7
:104A9C00806180618061003F001E0000000000000A
:104AAC000000001E003F0073806180618061807394
:104ABC00803F801D800180610073003F001E00005C
:104ACC000000000000000000000000000000000CCE
:104ADC00000C000000000000000000000000000CB2
:104AEC00000C0000000000000000000000000000AE
:104AFC0000000000000C000C000000000000000092
:104B0C000000000C000C0004000400080000000071
:104B1C000000000080008003000E003800600038A8
:104B2C00000E800380000000000000000000000068
:104B3C0000000000000000000000807F807F00006B
:104B4C000000807F807F000000000000000000005B
:104B5C000000000000000000000000000040007099
:104B6C00001C000780010007001C007000400000C2
:104B7C0000000000000000000000001F803FC0711A
:104B8C00C060C000C00180030007000E000C000CC8
:104B9C000000000C000C0000000000000000001ED3
:104BAC00003F803180718063806F806D806D806F7D
:104BBC00806700600032003E001C00000000000016
:104BCC000000000E000E001B001B001B001B8031A0
:104BDC008031803F803F8031C060C060C060000089
:104BEC00000000000000007C007E00630063006396
:104BFC000063007E007E0063806180618063007FC3
:104C0C00007E0000000000000000001E003F80310C
:104C1C008061006000600060006000600060806186
:104C2C008031003F001E0000000000000000007CEE
:104C3C00007F00638063806180618061806180613E
:104C4C00806100630063007E007C000000000000B7
:104C5C000000807F807F0060006000600060007F4B
:104C6C00007F0060006000600060807F807F00003B
:104C7C00000000000000807F807F0060006000600A
:104C8C000060007F007F00600060006000600060DA
:104C9C0000600000000000000000001E003F80319A
:104CAC00806100600060006080638063806180616F
:104CBC008031803F001E0000000000000000806179
:104CCC0080618061806180618061807F807F806194
:104CDC008061806180618061806100000000000063
:104CEC000000003F003F000C000C000C000C000CFE
:104CFC00000C000C000C000C000C003F003F0000EE
:104D0C000000000000008001800180018001800112
:104D1C008001800180018001806180618073003F8F
:104D2C00001E0000000000000000C06080610063F5
:104D3C0000660066006C0078007C0066006600630C
:104D4C0080618061C0600000000000000000006015
:104D5C000060006000600060006000600060006047
:104D6C00006000600060807F807F00000000000019
:104D7C000000C071C071C07BC07AC06AC06AC06ECE
:104D8C00C064C060C060C060C060C060C060000033
:104D9C00000000000000807180718079807980793A
:104DAC00806D806D806D80658067806780678063B3
:104DBC0080630000000000000000001E003F003374
:104DCC0080618061806180618061806180618061CF
:104DDC000033003F001E0000000000000000007EB9
:104DEC00007F80638061806180618063007F007ED2
:104DFC0000600060006000600060000000000000C7
:104E0C000000001E003F0033806180618061806182
:104E1C0080618061806580670033803F401E0000A8
:104E2C00000000000000007E007F806380618061D4
:104E3C008063007F007E0066006300638061806198
:104E4C00C0600000000000000000000E001F803158
:104E5C00803100300038001E0007800380618061C3
:104E6C008031003F001E0000000000000000C0FF69
:104E7C00C0FF000C000C000C000C000C000C000C13
:104E8C00000C000C000C000C000C000000000000DA
:104E9C0000008061806180618061806180618061DF
:104EAC0080618061806180618073003F001E000022
:104EBC00000000000000C060C060C0608031803124
:104ECC008031001B001B001B001B000E000E000E8F
:104EDC0000040000000000000000C0C0C0C0C0C042
:104EEC00C0C0C0C0C0CC804C804C805E8052805210
:104EFC008073806180610000000000000000C0C071
:104F0C00806080610033003B001E000C000C001E12
:104F1C00001F003B80718061C0C0000000000000D9
:104F2C000000C0C08061806100330033001E001E91
:104F3C00000C000C000C000C000C000C000C000011
:104F4C00000000000000803F803F80010003000350
:104F5C000006000C000C0018001800300060807F68
:104F6C00807F000000000000000F000F000C000C00
:104F7C00000C000C000C000C000C000C000C000CC5
:104F8C00000C000C000C000C000F000F00000018AF
:104F9C0000180018000C000C000C000C0006000699
:104FAC0000060006000300030003000000000000E0
:104FBC00001E001E00060006000600060006000685
:104FCC0000060006000600060006000600060006A5
:104FDC00001E001E0000000C000C001E001200330E
:104FEC0000338061806100000000000000000000C0
:104FFC0000000000000000000000000000000000A5
:10500C000000000000000000000000000000000094
:10501C000000000000000000E0FF0000000000386D
:10502C000018000C00000000000000000000000050
:10503C000000000000000000000000000000000064
:10504C0000000000000000000000001F803F806195
:10505C008001801F803F80618063807FC0380000AA
:10506C000000000000000060006000600060006E46
:10507C00007F807380618061806180618073007FBC
:10508C00006E0000000000000000000000000000A6
:10509C000000001E003F8073806100600060806132
:1050AC008073003F001E0000000000000000800123
:1050BC00800180018001801D803F80738061806150
:1050CC00806180618073803F801D000000000000C3
:1050DC0000000000000000000000001E003F0073F4
:1050EC008061807F807F00608071003F001E000027
:1050FC00000000000000C007C00F000C000C807FF7
:10510C00807F000C000C000C000C000C000C000C40
:10511C00000C000000000000000000000000000077
:10512C00801D803F807380618061806180618073AD
:10513C00803F801D80018063007F003E0000006086
:10514C00006000600060006F807F80718061806112
:10515C0080618061806180618061000000000000DE
:10516C0000000006000600000000003E003E0006A5
:10517C0000060006000600060006000600060000F9
:10518C00000000000006000600000000003E003E8B
:10519C0000060006000600060006000600060006D3
:1051AC0000060046007E003C0000006000600060CD
:1051BC000060806100630066006C007C0076006318
:1051CC0000638061C0600000000000000000003E31
:1051DC00003E00060006000600060006000600065B
:1051EC000006000600060006000600000000000095
:1051FC000000000000000000000080DDC0FFC0CEF9
:10520C00C0CCC0CCC0CCC0CCC0CCC0CCC0CC0000BE
:10521C000000000000000000000000000000006F13
:10522C00807F80718061806180618061806180613C
:10523C008061000000000000000000000000000081
:10524C000000001E003F807380618061806180617E
:10525C008073003F001E00000000000000000000F2
:10526C0000000000006E007F8073806180618061AF
:10527C0080618073007F006E0060006000600060E1
:10528C000000000000000000801D803F80738061E2
:10529C008061806180618073803F801D800180010E
:1052AC008001800100000000000000000000006789
:1052BC00803F0039003000300030003000300030CA
:1052CC0000300000000000000000000000000000A2
:1052DC000000001E803F80610060007F803F8001E5
:1052EC008061007F001E0000000000000000000034
:1052FC00000800180018007F007F00180018001824
:10530C00001800180018801F800F0000000000001B
:10531C0000000000000000000000806180618061DE
:10532C0080618061806180618063807F803D00004E
:10533C000000000000000000000000000000C06041
:10534C00803180318031001B001B001B000E000ED1
:10535C00000600000000000000000000000000003B
:10536C00000080DD80DD80DD0055005500550077A4
:10537C000077002200220000000000000000000066
:10538C00000000000000806100330033001E000CA0
:10539C00000C001E00330033806100000000000090
:1053AC00000000000000000080618061803100334B
:1053BC000033001B001B001B000E000E000E001C17
:1053CC00007C007000000000000000000000C07FA6
:1053DC00C07F800100030006000C00180030C07F65
:1053EC00C07F00000000000080038007000600065C
:1053FC00000600060006000E001C001C000E000635
:10540C000006000600060006800780030006000662
:10541C000006000600060006000600060006000650
:10542C000006000600060006000600060006000640
:10543C000038003C000C000C000C000C000C000EA2
:10544C0000070007000E000C000C000C000C000CF8
:10545C00003C0038000000000000000000000000CC
:10546C0000008038807F0047000000000000000032
:10547C0000000000000000000203040506070809F4
:10548C000A0B0C0D0E0F10100102000000000000A2
:10549C00000000000102030406070809232D302B2D
:1054AC002000686C4C006566674546470030313219
:1054BC003334353637383941424344454600303170
:1054CC0032333435363738396162636465660000CF
:0454DC00350100088E
:0454E00011010008AE
:1054E40001000000C1B3B4000B12000028470008FB
:1054F40001000000100000000024F400200000203F
:105504000000000000000000000000000000000097
:105514000000000000000000000000000000000087
:105524000000000000000000000000000000000077
:105534000000000000000000000000000000000067
:105544000000000000000000000000000000000057
:105554000000000000000000000000000000000047
:0400000508003D4171
:00000001FF
